{"contracts/ValcoreV1.sol":{"ValcoreV1":{"abi":[{"inputs":[{"internalType":"address","name":"stablecoinToken","type":"address"},{"internalType":"uint16","name":"principalRatio","type":"uint16"},{"internalType":"uint16","name":"fee","type":"uint16"},{"internalType":"uint256","name":"minDepositAmount","type":"uint256"},{"internalType":"address","name":"admin","type":"address"},{"internalType":"address","name":"treasuryAddress","type":"address"},{"internalType":"address","name":"pauser","type":"address"},{"internalType":"address","name":"auditor","type":"address"}],"stateMutability":"nonpayable","type":"constructor"},{"inputs":[],"name":"AccessControlBadConfirmation","type":"error"},{"inputs":[{"internalType":"address","name":"account","type":"address"},{"internalType":"bytes32","name":"neededRole","type":"bytes32"}],"name":"AccessControlUnauthorizedAccount","type":"error"},{"inputs":[{"internalType":"address","name":"target","type":"address"}],"name":"AddressEmptyCode","type":"error"},{"inputs":[{"internalType":"address","name":"account","type":"address"}],"name":"AddressInsufficientBalance","type":"error"},{"inputs":[],"name":"AlreadyClaimed","type":"error"},{"inputs":[],"name":"BelowMinDeposit","type":"error"},{"inputs":[],"name":"DepositTooLarge","type":"error"},{"inputs":[],"name":"DraftClosed","type":"error"},{"inputs":[],"name":"DraftNotOpen","type":"error"},{"inputs":[],"name":"EmergencyExitNotAllowed","type":"error"},{"inputs":[],"name":"EndTimeNotReached","type":"error"},{"inputs":[],"name":"EnforcedPause","type":"error"},{"inputs":[],"name":"ExpectedPause","type":"error"},{"inputs":[],"name":"FailedInnerCall","type":"error"},{"inputs":[],"name":"InvalidAddress","type":"error"},{"inputs":[],"name":"InvalidDeposit","type":"error"},{"inputs":[],"name":"InvalidFee","type":"error"},{"inputs":[],"name":"InvalidHash","type":"error"},{"inputs":[],"name":"InvalidMerkleRoot","type":"error"},{"inputs":[],"name":"InvalidMinDeposit","type":"error"},{"inputs":[],"name":"InvalidProof","type":"error"},{"inputs":[],"name":"InvalidRatio","type":"error"},{"inputs":[],"name":"InvalidTimeRange","type":"error"},{"inputs":[],"name":"InvalidTreasuryAddress","type":"error"},{"inputs":[],"name":"LockTimeNotReached","type":"error"},{"inputs":[],"name":"NoCommittedStrategies","type":"error"},{"inputs":[],"name":"NoLineup","type":"error"},{"inputs":[],"name":"NoSweepableReward","type":"error"},{"inputs":[],"name":"ReentrancyGuardReentrantCall","type":"error"},{"inputs":[],"name":"RewardAlreadySwept","type":"error"},{"inputs":[],"name":"RewardSweepNotAvailable","type":"error"},{"inputs":[{"internalType":"address","name":"token","type":"address"}],"name":"SafeERC20FailedOperation","type":"error"},{"inputs":[],"name":"StartTimeNotReached","type":"error"},{"inputs":[],"name":"SwapLimitReached","type":"error"},{"inputs":[],"name":"WeekAlreadyExists","type":"error"},{"inputs":[],"name":"WeekEnded","type":"error"},{"inputs":[],"name":"WeekNotActive","type":"error"},{"inputs":[],"name":"WeekNotFinalizePending","type":"error"},{"inputs":[],"name":"WeekNotFinalized","type":"error"},{"inputs":[],"name":"WeekNotLocked","type":"error"},{"anonymous":false,"inputs":[{"indexed":true,"internalType":"uint256","name":"weekId","type":"uint256"},{"indexed":true,"internalType":"address","name":"user","type":"address"},{"indexed":false,"internalType":"uint256","name":"amount","type":"uint256"}],"name":"Claimed","type":"event"},{"anonymous":false,"inputs":[{"indexed":true,"internalType":"uint256","name":"weekId","type":"uint256"},{"indexed":true,"internalType":"address","name":"user","type":"address"},{"indexed":false,"internalType":"uint256","name":"amount","type":"uint256"}],"name":"EmergencyExit","type":"event"},{"anonymous":false,"inputs":[{"indexed":true,"internalType":"uint256","name":"weekId","type":"uint256"},{"indexed":true,"internalType":"address","name":"user","type":"address"},{"indexed":false,"internalType":"bytes32","name":"lineupHash","type":"bytes32"},{"indexed":false,"internalType":"uint256","name":"deposit","type":"uint256"}],"name":"LineupCommitted","type":"event"},{"anonymous":false,"inputs":[{"indexed":true,"internalType":"uint256","name":"weekId","type":"uint256"},{"indexed":true,"internalType":"address","name":"user","type":"address"},{"indexed":false,"internalType":"bytes32","name":"lineupHash","type":"bytes32"},{"indexed":false,"internalType":"uint8","name":"swapsUsed","type":"uint8"}],"name":"LineupSwapped","type":"event"},{"anonymous":false,"inputs":[{"indexed":true,"internalType":"uint256","name":"weekId","type":"uint256"},{"indexed":true,"internalType":"address","name":"user","type":"address"},{"indexed":false,"internalType":"bytes32","name":"lineupHash","type":"bytes32"},{"indexed":false,"internalType":"uint256","name":"deposit","type":"uint256"}],"name":"LineupUpdated","type":"event"},{"anonymous":false,"inputs":[{"indexed":false,"internalType":"address","name":"account","type":"address"}],"name":"Paused","type":"event"},{"anonymous":false,"inputs":[{"indexed":true,"internalType":"uint256","name":"weekId","type":"uint256"},{"indexed":true,"internalType":"address","name":"treasury","type":"address"},{"indexed":false,"internalType":"uint256","name":"amount","type":"uint256"}],"name":"ProtocolFeeTransferred","type":"event"},{"anonymous":false,"inputs":[{"indexed":true,"internalType":"uint256","name":"weekId","type":"uint256"},{"indexed":true,"internalType":"address","name":"user","type":"address"},{"indexed":true,"internalType":"address","name":"caller","type":"address"},{"indexed":false,"internalType":"uint256","name":"amount","type":"uint256"}],"name":"RewardSwept","type":"event"},{"anonymous":false,"inputs":[{"indexed":true,"internalType":"bytes32","name":"role","type":"bytes32"},{"indexed":true,"internalType":"bytes32","name":"previousAdminRole","type":"bytes32"},{"indexed":true,"internalType":"bytes32","name":"newAdminRole","type":"bytes32"}],"name":"RoleAdminChanged","type":"event"},{"anonymous":false,"inputs":[{"indexed":true,"internalType":"bytes32","name":"role","type":"bytes32"},{"indexed":true,"internalType":"address","name":"account","type":"address"},{"indexed":true,"internalType":"address","name":"sender","type":"address"}],"name":"RoleGranted","type":"event"},{"anonymous":false,"inputs":[{"indexed":true,"internalType":"bytes32","name":"role","type":"bytes32"},{"indexed":true,"internalType":"address","name":"account","type":"address"},{"indexed":true,"internalType":"address","name":"sender","type":"address"}],"name":"RoleRevoked","type":"event"},{"anonymous":false,"inputs":[{"indexed":false,"internalType":"bool","name":"enabled","type":"bool"}],"name":"TestModeChanged","type":"event"},{"anonymous":false,"inputs":[{"indexed":false,"internalType":"address","name":"account","type":"address"}],"name":"Unpaused","type":"event"},{"anonymous":false,"inputs":[{"indexed":true,"internalType":"uint256","name":"weekId","type":"uint256"},{"indexed":false,"internalType":"uint64","name":"startAt","type":"uint64"},{"indexed":false,"internalType":"uint64","name":"lockAt","type":"uint64"},{"indexed":false,"internalType":"uint64","name":"endAt","type":"uint64"}],"name":"WeekCreated","type":"event"},{"anonymous":false,"inputs":[{"indexed":true,"internalType":"uint256","name":"weekId","type":"uint256"}],"name":"WeekFinalizationRejected","type":"event"},{"anonymous":false,"inputs":[{"indexed":true,"internalType":"uint256","name":"weekId","type":"uint256"},{"indexed":false,"internalType":"bytes32","name":"merkleRoot","type":"bytes32"},{"indexed":false,"internalType":"bytes32","name":"metadataHash","type":"bytes32"},{"indexed":false,"internalType":"uint256","name":"retainedFee","type":"uint256"}],"name":"WeekFinalizePending","type":"event"},{"anonymous":false,"inputs":[{"indexed":true,"internalType":"uint256","name":"weekId","type":"uint256"},{"indexed":false,"internalType":"bytes32","name":"merkleRoot","type":"bytes32"},{"indexed":false,"internalType":"bytes32","name":"metadataHash","type":"bytes32"}],"name":"WeekFinalized","type":"event"},{"anonymous":false,"inputs":[{"indexed":true,"internalType":"uint256","name":"weekId","type":"uint256"}],"name":"WeekLocked","type":"event"},{"anonymous":false,"inputs":[{"indexed":true,"internalType":"uint256","name":"weekId","type":"uint256"}],"name":"WeekStarted","type":"event"},{"inputs":[],"name":"AUDITOR_ROLE","outputs":[{"internalType":"bytes32","name":"","type":"bytes32"}],"stateMutability":"view","type":"function"},{"inputs":[],"name":"BPS","outputs":[{"internalType":"uint256","name":"","type":"uint256"}],"stateMutability":"view","type":"function"},{"inputs":[],"name":"DEFAULT_ADMIN_ROLE","outputs":[{"internalType":"bytes32","name":"","type":"bytes32"}],"stateMutability":"view","type":"function"},{"inputs":[],"name":"MAX_SWAPS","outputs":[{"internalType":"uint8","name":"","type":"uint8"}],"stateMutability":"view","type":"function"},{"inputs":[],"name":"ORACLE_ROLE","outputs":[{"internalType":"bytes32","name":"","type":"bytes32"}],"stateMutability":"view","type":"function"},{"inputs":[],"name":"PAUSER_ROLE","outputs":[{"internalType":"bytes32","name":"","type":"bytes32"}],"stateMutability":"view","type":"function"},{"inputs":[],"name":"REWARD_SWEEP_DELAY","outputs":[{"internalType":"uint256","name":"","type":"uint256"}],"stateMutability":"view","type":"function"},{"inputs":[{"internalType":"uint256","name":"weekId","type":"uint256"}],"name":"approveFinalization","outputs":[],"stateMutability":"nonpayable","type":"function"},{"inputs":[{"internalType":"uint256","name":"weekId","type":"uint256"},{"internalType":"uint256","name":"principal","type":"uint256"},{"internalType":"uint256","name":"riskPayout","type":"uint256"},{"internalType":"uint256","name":"totalWithdraw","type":"uint256"},{"internalType":"bytes32[]","name":"proof","type":"bytes32[]"}],"name":"claim","outputs":[],"stateMutability":"nonpayable","type":"function"},{"inputs":[{"internalType":"uint256","name":"weekId","type":"uint256"},{"internalType":"bytes32","name":"lineupHash","type":"bytes32"},{"internalType":"uint256","name":"depositAmount","type":"uint256"}],"name":"commitLineup","outputs":[],"stateMutability":"nonpayable","type":"function"},{"inputs":[{"internalType":"uint256","name":"weekId","type":"uint256"},{"internalType":"uint64","name":"startAt","type":"uint64"},{"internalType":"uint64","name":"lockAt","type":"uint64"},{"internalType":"uint64","name":"endAt","type":"uint64"}],"name":"createWeek","outputs":[],"stateMutability":"nonpayable","type":"function"},{"inputs":[{"internalType":"uint256","name":"weekId","type":"uint256"}],"name":"emergencyExit","outputs":[],"stateMutability":"nonpayable","type":"function"},{"inputs":[],"name":"feeBps","outputs":[{"internalType":"uint16","name":"","type":"uint16"}],"stateMutability":"view","type":"function"},{"inputs":[{"internalType":"uint256","name":"weekId","type":"uint256"},{"internalType":"bytes32","name":"merkleRoot","type":"bytes32"},{"internalType":"bytes32","name":"metadataHash","type":"bytes32"},{"internalType":"uint256","name":"retainedFee","type":"uint256"}],"name":"finalizeWeek","outputs":[],"stateMutability":"nonpayable","type":"function"},{"inputs":[{"internalType":"uint256","name":"weekId","type":"uint256"},{"internalType":"bytes32","name":"merkleRoot","type":"bytes32"},{"internalType":"bytes32","name":"metadataHash","type":"bytes32"},{"internalType":"uint256","name":"retainedFee","type":"uint256"}],"name":"forceFinalizeWeek","outputs":[],"stateMutability":"nonpayable","type":"function"},{"inputs":[{"internalType":"uint256","name":"weekId","type":"uint256"}],"name":"forceLockWeek","outputs":[],"stateMutability":"nonpayable","type":"function"},{"inputs":[{"internalType":"uint256","name":"weekId","type":"uint256"}],"name":"forceStartWeek","outputs":[],"stateMutability":"nonpayable","type":"function"},{"inputs":[{"internalType":"bytes32","name":"role","type":"bytes32"}],"name":"getRoleAdmin","outputs":[{"internalType":"bytes32","name":"","type":"bytes32"}],"stateMutability":"view","type":"function"},{"inputs":[{"internalType":"bytes32","name":"role","type":"bytes32"},{"internalType":"address","name":"account","type":"address"}],"name":"grantRole","outputs":[],"stateMutability":"nonpayable","type":"function"},{"inputs":[{"internalType":"bytes32","name":"role","type":"bytes32"},{"internalType":"address","name":"account","type":"address"}],"name":"hasRole","outputs":[{"internalType":"bool","name":"","type":"bool"}],"stateMutability":"view","type":"function"},{"inputs":[{"internalType":"uint256","name":"weekId","type":"uint256"}],"name":"lockWeek","outputs":[],"stateMutability":"nonpayable","type":"function"},{"inputs":[],"name":"minDeposit","outputs":[{"internalType":"uint256","name":"","type":"uint256"}],"stateMutability":"view","type":"function"},{"inputs":[],"name":"pause","outputs":[],"stateMutability":"nonpayable","type":"function"},{"inputs":[],"name":"paused","outputs":[{"internalType":"bool","name":"","type":"bool"}],"stateMutability":"view","type":"function"},{"inputs":[{"internalType":"uint256","name":"","type":"uint256"},{"internalType":"address","name":"","type":"address"}],"name":"positions","outputs":[{"internalType":"uint128","name":"principal","type":"uint128"},{"internalType":"uint128","name":"risk","type":"uint128"},{"internalType":"uint128","name":"forfeitedReward","type":"uint128"},{"internalType":"bytes32","name":"lineupHash","type":"bytes32"},{"internalType":"uint8","name":"swaps","type":"uint8"},{"internalType":"bool","name":"claimed","type":"bool"}],"stateMutability":"view","type":"function"},{"inputs":[],"name":"principalRatioBps","outputs":[{"internalType":"uint16","name":"","type":"uint16"}],"stateMutability":"view","type":"function"},{"inputs":[{"internalType":"uint256","name":"weekId","type":"uint256"}],"name":"rejectFinalization","outputs":[],"stateMutability":"nonpayable","type":"function"},{"inputs":[{"internalType":"bytes32","name":"role","type":"bytes32"},{"internalType":"address","name":"callerConfirmation","type":"address"}],"name":"renounceRole","outputs":[],"stateMutability":"nonpayable","type":"function"},{"inputs":[{"internalType":"bytes32","name":"role","type":"bytes32"},{"internalType":"address","name":"account","type":"address"}],"name":"revokeRole","outputs":[],"stateMutability":"nonpayable","type":"function"},{"inputs":[{"internalType":"uint256","name":"weekId","type":"uint256"}],"name":"rewardSweepAvailableAt","outputs":[{"internalType":"uint256","name":"","type":"uint256"}],"stateMutability":"view","type":"function"},{"inputs":[{"internalType":"bool","name":"enabled","type":"bool"}],"name":"setTestMode","outputs":[],"stateMutability":"nonpayable","type":"function"},{"inputs":[],"name":"stablecoin","outputs":[{"internalType":"contract IERC20","name":"","type":"address"}],"stateMutability":"view","type":"function"},{"inputs":[{"internalType":"uint256","name":"weekId","type":"uint256"}],"name":"startWeek","outputs":[],"stateMutability":"nonpayable","type":"function"},{"inputs":[{"internalType":"bytes4","name":"interfaceId","type":"bytes4"}],"name":"supportsInterface","outputs":[{"internalType":"bool","name":"","type":"bool"}],"stateMutability":"view","type":"function"},{"inputs":[{"internalType":"uint256","name":"weekId","type":"uint256"},{"internalType":"bytes32","name":"newHash","type":"bytes32"}],"name":"swapLineup","outputs":[],"stateMutability":"nonpayable","type":"function"},{"inputs":[{"internalType":"uint256","name":"weekId","type":"uint256"},{"internalType":"address","name":"user","type":"address"},{"internalType":"uint256","name":"principal","type":"uint256"},{"internalType":"uint256","name":"riskPayout","type":"uint256"},{"internalType":"uint256","name":"totalWithdraw","type":"uint256"},{"internalType":"bytes32[]","name":"proof","type":"bytes32[]"}],"name":"sweepExpiredReward","outputs":[],"stateMutability":"nonpayable","type":"function"},{"inputs":[],"name":"testMode","outputs":[{"internalType":"bool","name":"","type":"bool"}],"stateMutability":"view","type":"function"},{"inputs":[],"name":"treasury","outputs":[{"internalType":"address","name":"","type":"address"}],"stateMutability":"view","type":"function"},{"inputs":[],"name":"unpause","outputs":[],"stateMutability":"nonpayable","type":"function"},{"inputs":[{"internalType":"uint256","name":"","type":"uint256"}],"name":"weekStates","outputs":[{"internalType":"uint64","name":"startAt","type":"uint64"},{"internalType":"uint64","name":"lockAt","type":"uint64"},{"internalType":"uint64","name":"endAt","type":"uint64"},{"internalType":"uint64","name":"finalizedAt","type":"uint64"},{"internalType":"uint8","name":"status","type":"uint8"},{"internalType":"uint128","name":"riskCommitted","type":"uint128"},{"internalType":"uint128","name":"retainedFee","type":"uint128"},{"internalType":"bytes32","name":"merkleRoot","type":"bytes32"},{"internalType":"bytes32","name":"metadataHash","type":"bytes32"}],"stateMutability":"view","type":"function"}],"evm":{"bytecode":{"linkReferences":{},"object":"6101206040523480156200001257600080fd5b5060405162002ce538038062002ce5833981016040819052620000359162000325565b6001805460ff191681556002556001600160a01b0388166200006a5760405163e6c4247b60e01b815260040160405180910390fd5b6127108761ffff161115620000925760405163648564d360e01b815260040160405180910390fd5b6127108661ffff161115620000ba576040516358d620b360e01b815260040160405180910390fd5b84600003620000dc57604051634f4940eb60e11b815260040160405180910390fd5b6001600160a01b038416620001045760405163e6c4247b60e01b815260040160405180910390fd5b6001600160a01b0383166200012c5760405163cfe2ea6360e01b815260040160405180910390fd5b6001600160a01b038216620001545760405163e6c4247b60e01b815260040160405180910390fd5b6001600160a01b0381166200017c5760405163e6c4247b60e01b815260040160405180910390fd5b6001600160a01b03808916608052831660a05261ffff80881660c052861660e052610100859052620001b060008562000246565b50620001dd7f68e79a7bf1e0bc45d0a330c573bc367f9cf464fd326078812f301165fbda4ef18562000246565b506200020a7f65d7a28e3265b37a6474929f336521b332c1681b933f6cb9f3376673440d862a8362000246565b50620002377f59a1c48e5837ad7a7f3dcedcbe129bf3249ec4fbf651fd4f5e2600ead39fe2f58262000246565b505050505050505050620003c4565b6000828152602081815260408083206001600160a01b038516845290915281205460ff16620002eb576000838152602081815260408083206001600160a01b03861684529091529020805460ff19166001179055620002a23390565b6001600160a01b0316826001600160a01b0316847f2f8788117e7eff1d82e926ec794901d17c78024a50270940304540a733656f0d60405160405180910390a4506001620002ef565b5060005b92915050565b80516001600160a01b03811681146200030d57600080fd5b919050565b805161ffff811681146200030d57600080fd5b600080600080600080600080610100898b0312156200034357600080fd5b6200034e89620002f5565b97506200035e60208a0162000312565b96506200036e60408a0162000312565b9550606089015194506200038560808a01620002f5565b93506200039560a08a01620002f5565b9250620003a560c08a01620002f5565b9150620003b560e08a01620002f5565b90509295985092959890939650565b60805160a05160c05160e0516101005161288162000464600039600081816104a30152611270015260006103310152600081816104ca01526113b801526000818161053501528181610fcc0152818161180601528181611947015261196e01526000818161073801528181610d9601528181610fa2015281816110620152818161133701528181611384015281816117dc015261192501526128816000f3fe608060405234801561001057600080fd5b50600436106102485760003560e01c80635c975abb1161013b578063a217fddf116100b8578063dda062d41161007c578063dda062d41461064b578063e63ab1e914610655578063e684d7181461067c578063e81248d214610720578063e9cbd8221461073357600080fd5b8063a217fddf146105fd578063b692d26514610605578063c839d8dc14610618578063cd9ea3421461062b578063d547741f1461063857600080fd5b80636e4322e5116100ff5780636e4322e5146105a95780638197eba8146105bc5780638456cb59146105cf5780638cd3b5e8146105d757806391d14854146105ea57600080fd5b80635c975abb14610512578063601ee2291461051d57806361d027b314610530578063686c3db41461056f5780636e1d616e1461058257600080fd5b80632f2ff15d116101c95780633f4ba83a1161018d5780633f4ba83a1461049657806341b3d1851461049e578063421e3cd6146104c55780634231b0bd146104ec5780635463c3e8146104ff57600080fd5b80632f2ff15d146103665780633145c3cd14610379578063316a65e51461038c57806336568abe1461047057806336cb29201461048357600080fd5b80631ff1292f116102105780631ff1292f146102da57806324891c55146102ed578063248a9ca314610300578063249d39e91461032357806324a9d8531461032c57600080fd5b806301ffc9a71461024d578063062761211461027557806307e2cea51461028f578063161d263e146102b25780631cd249e6146102c7575b600080fd5b61026061025b3660046123f7565b61075a565b60405190151581526020015b60405180910390f35b61027d600a81565b60405160ff909116815260200161026c565b6102a460008051602061282c83398151915281565b60405190815260200161026c565b6102c56102c0366004612421565b610791565b005b6102c56102d5366004612421565b610850565b6102c56102e8366004612448565b6108dd565b6102c56102fb366004612421565b610930565b6102a461030e366004612421565b60009081526020819052604090206001015490565b6102a461271081565b6103537f000000000000000000000000000000000000000000000000000000000000000081565b60405161ffff909116815260200161026c565b6102c5610374366004612481565b6109e1565b6102c5610387366004612421565b610a0c565b61040a61039a366004612421565b6004602081905260009182526040909120805460018201546002830154600384015493909401546001600160401b0380841695600160401b8504821695600160801b8604831695600160c01b90049092169360ff8116936101009091046001600160801b03908116939216919089565b604080516001600160401b039a8b168152988a1660208a01529689169688019690965296909316606086015260ff90911660808501526001600160801b0390811660a08501521660c083015260e08201929092526101008101919091526101200161026c565b6102c561047e366004612481565b610a85565b6102c56104913660046124c4565b610abd565b6102c5610bf8565b6102a47f000000000000000000000000000000000000000000000000000000000000000081565b6103537f000000000000000000000000000000000000000000000000000000000000000081565b6102c56104fa366004612421565b610c2d565b6102c561050d36600461255c565b610e02565b60015460ff16610260565b6102c561052b366004612421565b6110d7565b6105577f000000000000000000000000000000000000000000000000000000000000000081565b6040516001600160a01b03909116815260200161026c565b6102c561057d3660046125c5565b6111a9565b6102a47f59a1c48e5837ad7a7f3dcedcbe129bf3249ec4fbf651fd4f5e2600ead39fe2f581565b6102c56105b73660046125f1565b6115f0565b6102c56105ca366004612421565b611890565b6102c5611a22565b6102c56105e536600461266b565b611a54565b6102606105f8366004612481565b611bbb565b6102a4600081565b6102a4610613366004612421565b611be4565b6102c561062636600461268d565b611c4d565b6003546102609060ff1681565b6102c5610646366004612481565b611d21565b6102a462ed4e0081565b6102a47f65d7a28e3265b37a6474929f336521b332c1681b933f6cb9f3376673440d862a81565b6106df61068a366004612481565b600560209081526000928352604080842090915290825290208054600182015460028301546003909301546001600160801b0380841694600160801b9094048116939216919060ff8082169161010090041686565b604080516001600160801b03978816815295871660208701529390951692840192909252606083015260ff16608082015290151560a082015260c00161026c565b6102c561072e36600461268d565b611d46565b6105577f000000000000000000000000000000000000000000000000000000000000000081565b60006001600160e01b03198216637965db0b60e01b148061078b57506301ffc9a760e01b6001600160e01b03198316145b92915050565b60008051602061282c8339815191526107a981611dc6565b600082815260046020526040902060018082015460ff16146107de576040516363e0f9cf60e11b815260040160405180910390fd5b600181015461010090046001600160801b031660000361081157604051630f2b655960e41b815260040160405180910390fd5b60018101805460ff1916600217905560405183907f4847a6ddbf4c912f1f99f61aa3f7abd920b5c1d300f4ed628dee038ef7ddefcb90600090a2505050565b60008051602061282c83398151915261086881611dc6565b6000828152600460205260409020600181015460ff1660021461089e5760405163f6c42cb560e01b815260040160405180910390fd5b60018101805460ff1916600317905560405183907fac603d57c7726546b797af9d2815978752f98539d10067c831d5330c3bfc1aea90600090a2505050565b60006108e881611dc6565b6003805460ff19168315159081179091556040519081527f3aa6186db6afba61ec3731f16e23fdea8dfa0dfe10d7c05942d11fdb365db0319060200160405180910390a15050565b60008051602061282c83398151915261094881611dc6565b600082815260046020526040902060018082015460ff161461097d576040516363e0f9cf60e11b815260040160405180910390fd5b600181015461010090046001600160801b03166000036109b057604051630f2b655960e41b815260040160405180910390fd5b8054600160401b90046001600160401b0316421015610811576040516214930960e01b815260040160405180910390fd5b6000828152602081905260409020600101546109fc81611dc6565b610a068383611dd0565b50505050565b60008051602061282c833981519152610a2481611dc6565b6000828152600460205260409020600181015460ff16600214610a5a5760405163f6c42cb560e01b815260040160405180910390fd5b80546001600160401b031642101561089e5760405163047ce04160e21b815260040160405180910390fd5b6001600160a01b0381163314610aae5760405163334bd91960e11b815260040160405180910390fd5b610ab88282611e62565b505050565b60008051602061282c833981519152610ad581611dc6565b6000858152600460205260409020600181015460ff1615610b09576040516325c6d65760e11b815260040160405180910390fd5b846001600160401b0316846001600160401b03161180610b3b5750826001600160401b0316856001600160401b031610155b15610b595760405163536a71af60e01b815260040160405180910390fd5b80546001600160401b038681166001600160801b03199092168217600160401b8783169081029190911767ffffffffffffffff60801b1916600160801b9287169283021784556001808501805460ff1916909117905560408051938452602084019190915282015286907f5d5aab8af204a4135004372eb568fb9048bfea2555b25c1c5db092b56013ea589060600160405180910390a2505050505050565b7f65d7a28e3265b37a6474929f336521b332c1681b933f6cb9f3376673440d862a610c2281611dc6565b610c2a611ecd565b50565b610c35611f1f565b610c3d611f44565b6000818152600460205260409020600181015460ff1660041901610c745760405163121c1cb560e21b815260040160405180910390fd5b600082815260056020908152604080832033845290915290206003810154610100900460ff1615610cb857604051630c8d9eab60e31b815260040160405180910390fd5b8054600090610cd9906001600160801b03600160801b8204811691166126d5565b905080600003610cfc57604051635e096daf60e01b815260040160405180910390fd5b8154600160801b90046001600160801b03168015610d5c5760018481018054839290610d3790849061010090046001600160801b03166126e8565b92506101000a8154816001600160801b0302191690836001600160801b031602179055505b60008084556001840180546001600160801b0319169055600284015560038301805461ffff1916610100179055610dbd6001600160a01b037f0000000000000000000000000000000000000000000000000000000000000000163384611f6c565b604051828152339086907f0782d17757ef22b6d49078e7415f30225d972d06ec6433e96ea382674493af429060200160405180910390a350505050610c2a6001600255565b610e0a611f44565b6000868152600460205260409020600181015460ff16600514610e40576040516365e1a11160e11b815260040160405180910390fd5b600087815260056020908152604080832033845290915290206003810154610100900460ff1615610e8457604051630c8d9eab60e31b815260040160405180910390fd5b600030468a338b8b8b604051602001610ea3979695949392919061270f565b604051602081830303815290604052805190602001209050610efc858580806020026020016040519081016040528093929190818152602001838360200280828437600092019190915250505050600385015483611fcb565b610f19576040516309bde33960e01b815260040160405180910390fd5b600182015486906001600160801b031680158015610f3b5750610f3b85611fe1565b1561102d576000610f4d858c8b61202d565b9050801561102b576001600160801b03811115610f7d5760405163c56d46d360e01b815260040160405180910390fd5b6001850180546001600160801b0319166001600160801b038316179055905080610ff17f00000000000000000000000000000000000000000000000000000000000000006001600160a01b03167f000000000000000000000000000000000000000000000000000000000000000083611f6c565b604051818152339081908e907ff2d8b3e55fc163d23dc20f735eafa12caa3f0f65c229d1e0398493935755949d9060200160405180910390a45b505b818111156110385750805b611042818361275d565b60038501805461ff00191661010017905591506110896001600160a01b037f0000000000000000000000000000000000000000000000000000000000000000163384611f6c565b60405182815233908c907f4ec90e965519d92681267467f775ada5bd214aa92c0dc93d90a5e880ce9ed0269060200160405180910390a350505050506110cf6001600255565b505050505050565b7f59a1c48e5837ad7a7f3dcedcbe129bf3249ec4fbf651fd4f5e2600ead39fe2f561110181611dc6565b60008281526004602081905260409091206001810154909160ff9091161461113c5760405163c50c9a7f60e01b815260040160405180910390fd5b60018101805460ff1916600390811790915581546001600160c01b031682556002820180546001600160801b031916905560009082018190556004820181905560405184917f262bb819c866f92fbce469b11aff93b1cc683adaba550cb35045cf48671d6cfa91a2505050565b6111b1612074565b6111b9611f44565b600083815260046020526040902060018082015460ff16146111ee576040516363e0f9cf60e11b815260040160405180910390fd5b60035460ff1615801561121257508054600160401b90046001600160401b03164210155b15611230576040516370fe87b160e01b815260040160405180910390fd5b8261124d576040516257c03760e51b815260040160405180910390fd5b8160000361126e57604051635972996f60e11b815260040160405180910390fd5b7f00000000000000000000000000000000000000000000000000000000000000008210156112af576040516325bb239560e21b815260040160405180910390fd5b600084815260056020908152604080832033845290915290206003810154610100900460ff16156112f357604051630c8d9eab60e31b815260040160405180910390fd5b8054600090611314906001600160801b03600160801b8204811691166126d5565b9050808411156113645761135f333061132d848861275d565b6001600160a01b037f000000000000000000000000000000000000000000000000000000000000000016929190612098565b6113ab565b808410156113ab576113ab3361137a868461275d565b6001600160a01b037f0000000000000000000000000000000000000000000000000000000000000000169190611f6c565b60006127106113de61ffff7f00000000000000000000000000000000000000000000000000000000000000001687612770565b6113e89190612787565b905060006113f6828761275d565b90506001600160801b0382118061141357506001600160801b0381115b156114315760405163c56d46d360e01b815260040160405180910390fd5b8354600160801b90046001600160801b0316808211156114ac5761145e6001600160801b0382168361275d565b8660010160018282829054906101000a90046001600160801b031661148391906127a9565b92506101000a8154816001600160801b0302191690836001600160801b0316021790555061151a565b806001600160801b031682101561151a576114d0826001600160801b03831661275d565b8660010160018282829054906101000a90046001600160801b03166114f591906126e8565b92506101000a8154816001600160801b0302191690836001600160801b031602179055505b6001600160801b03828116600160801b029084161785556001850180546001600160801b03191690556002850188905560038501805461ffff1916905560008490036115a257604080518981526020810189905233918b917f80911c202f290b865d2f04d188438939370585fe8970854f13309adaebf28a8a910160405180910390a36115e0565b604080518981526020810189905233918b917f645958708f60ea0b47fa2c9c64bae144d7111035c5f9bb13ac45022c6f018651910160405180910390a35b505050505050610ab86001600255565b6115f8611f44565b6000878152600460205260409020600181015460ff1660051461162e576040516365e1a11160e11b815260040160405180910390fd5b61163781611fe1565b61165457604051632718eac760e01b815260040160405180910390fd5b60008881526005602090815260408083206001600160a01b038b16845290915290206003810154610100900460ff16156116a157604051630c8d9eab60e31b815260040160405180910390fd5b60018101546001600160801b0316156116cd57604051636caabf8f60e11b815260040160405180910390fd5b600030468b8b8b8b8b6040516020016116ec979695949392919061270f565b604051602081830303815290604052805190602001209050611745858580806020026020016040519081016040528093929190818152602001838360200280828437600092019190915250505050600385015483611fcb565b611762576040516309bde33960e01b815260040160405180910390fd5b600061176f838a8961202d565b90508060000361179257604051631557f70960e01b815260040160405180910390fd5b6001600160801b038111156117ba5760405163c56d46d360e01b815260040160405180910390fd5b6001830180546001600160801b0319166001600160801b03831617905561182b7f00000000000000000000000000000000000000000000000000000000000000006001600160a01b03167f000000000000000000000000000000000000000000000000000000000000000083611f6c565b336001600160a01b03168a6001600160a01b03168c7ff2d8b3e55fc163d23dc20f735eafa12caa3f0f65c229d1e0398493935755949d8460405161187191815260200190565b60405180910390a4505050506118876001600255565b50505050505050565b7f59a1c48e5837ad7a7f3dcedcbe129bf3249ec4fbf651fd4f5e2600ead39fe2f56118ba81611dc6565b60008281526004602081905260409091206001810154909160ff909116146118f55760405163c50c9a7f60e01b815260040160405180910390fd5b60018101805460ff1916600517905560028101546001600160801b031680156119d15761196c6001600160a01b037f0000000000000000000000000000000000000000000000000000000000000000167f000000000000000000000000000000000000000000000000000000000000000083611f6c565b7f00000000000000000000000000000000000000000000000000000000000000006001600160a01b0316847f0e19f21371647f79bb7c3f1e363266315b211fcca3836e7a71425cc0c4ab6a8e836040516119c891815260200190565b60405180910390a35b837fe3ae6d591c9a33e364ec2f64a44c0f22b39c7408f4c24b7b6a330cdff31e63a583600301548460040154604051611a14929190918252602082015260400190565b60405180910390a250505050565b7f65d7a28e3265b37a6474929f336521b332c1681b933f6cb9f3376673440d862a611a4c81611dc6565b610c2a6120d1565b611a5c612074565b6000828152600460205260409020600181015460ff16600314611a9257604051633e6881c560e01b815260040160405180910390fd5b60035460ff16158015611ab657508054600160801b90046001600160401b03164210155b15611ad45760405163cae73d4560e01b815260040160405180910390fd5b600083815260056020908152604080832033845290915290206002810154611b0f57604051635e096daf60e01b815260040160405180910390fd5b6003810154600a60ff90911610611b395760405163a3869ab760e01b815260040160405180910390fd5b82611b56576040516257c03760e51b815260040160405180910390fd5b6002810183905560038101805460ff8082166001011660ff199091168117909155604080518581526020810192909252339186917ff13a4df72601c50daaff7ebb4317c336455ac45e70cba3146db7ffd8104cb17c910160405180910390a350505050565b6000918252602082815260408084206001600160a01b0393909316845291905290205460ff1690565b6000818152600460205260408120600181015460ff166005141580611c1857508054600160c01b90046001600160401b0316155b15611c265750600092915050565b8054611c469062ed4e0090600160c01b90046001600160401b03166126d5565b9392505050565b60008051602061282c833981519152611c6581611dc6565b6000858152600460205260409020600181015460ff16600314611c9b57604051633e6881c560e01b815260040160405180910390fd5b84611cb957604051639dd854d360e01b815260040160405180910390fd5b6001600160801b03831115611ce15760405163c56d46d360e01b815260040160405180910390fd5b600181015461010090046001600160801b0316831115611d14576040516358d620b360e01b815260040160405180910390fd5b6110cf818787878761210c565b600082815260208190526040902060010154611d3c81611dc6565b610a068383611e62565b60008051602061282c833981519152611d5e81611dc6565b6000858152600460205260409020600181015460ff16600314611d9457604051633e6881c560e01b815260040160405180910390fd5b8054600160801b90046001600160401b0316421015611c9b576040516307cd705b60e41b815260040160405180910390fd5b610c2a81336121b0565b6000611ddc8383611bbb565b611e5a576000838152602081815260408083206001600160a01b03861684529091529020805460ff19166001179055611e123390565b6001600160a01b0316826001600160a01b0316847f2f8788117e7eff1d82e926ec794901d17c78024a50270940304540a733656f0d60405160405180910390a450600161078b565b50600061078b565b6000611e6e8383611bbb565b15611e5a576000838152602081815260408083206001600160a01b0386168085529252808320805460ff1916905551339286917ff6391f5c32d9c69d2a47ea670b442974b53935d1edc7fd64eb21e047a839171b9190a450600161078b565b611ed5611f1f565b6001805460ff191690557f5db9ee0a495bf2e6ff9c91a7834c1ba4fdd244a5e8aa4e537bd38aeae4b073aa335b6040516001600160a01b03909116815260200160405180910390a1565b60015460ff16611f4257604051638dfc202b60e01b815260040160405180910390fd5b565b6002805403611f6657604051633ee5aeb560e01b815260040160405180910390fd5b60028055565b6040516001600160a01b03838116602483015260448201839052610ab891859182169063a9059cbb906064015b604051602081830303815290604052915060e01b6020820180516001600160e01b0383818316178352505050506121f2565b600082611fd88584612255565b14949350505050565b8054600090600160c01b90046001600160401b0316810361200457506000919050565b81546120249062ed4e0090600160c01b90046001600160401b03166126d5565b42101592915050565b8254600090819061204e90600160801b90046001600160801b0316856126d5565b9050808311612061576000915050611c46565b61206b818461275d565b95945050505050565b60015460ff1615611f425760405163d93c066560e01b815260040160405180910390fd5b6040516001600160a01b038481166024830152838116604483015260648201839052610a069186918216906323b872dd90608401611f99565b6120d9612074565b6001805460ff1916811790557f62e78cea01bee320cd4e420270b5ea74000d11b0c9f74754ebdbfc544b05a25833611f02565b600185018054600460ff19909116811790915585546001600160c01b0316600160c01b426001600160401b0316021786556002860180546001600160801b0319166001600160801b0384161790556003860184905585018290556040805184815260208101849052808201839052905185917f6faa1c6974b01d1466668718128c05788426c37fd3f11667f2cf4bc79a7cb7d6919081900360600190a25050505050565b6121ba8282611bbb565b6121ee5760405163e2517d3f60e01b81526001600160a01b0382166004820152602481018390526044015b60405180910390fd5b5050565b60006122076001600160a01b03841683612298565b9050805160001415801561222c57508080602001905181019061222a91906127c9565b155b15610ab857604051635274afe760e01b81526001600160a01b03841660048201526024016121e5565b600081815b84518110156122905761228682868381518110612279576122796127e6565b60200260200101516122a6565b915060010161225a565b509392505050565b6060611c46838360006122d5565b60008183106122c2576000828152602084905260409020611c46565b6000838152602083905260409020611c46565b6060814710156122fa5760405163cd78605960e01b81523060048201526024016121e5565b600080856001600160a01b0316848660405161231691906127fc565b60006040518083038185875af1925050503d8060008114612353576040519150601f19603f3d011682016040523d82523d6000602084013e612358565b606091505b5091509150612368868383612372565b9695505050505050565b60608261238757612382826123ce565b611c46565b815115801561239e57506001600160a01b0384163b155b156123c757604051639996b31560e01b81526001600160a01b03851660048201526024016121e5565b5080611c46565b8051156123de5780518082602001fd5b604051630a12f52160e11b815260040160405180910390fd5b60006020828403121561240957600080fd5b81356001600160e01b031981168114611c4657600080fd5b60006020828403121561243357600080fd5b5035919050565b8015158114610c2a57600080fd5b60006020828403121561245a57600080fd5b8135611c468161243a565b80356001600160a01b038116811461247c57600080fd5b919050565b6000806040838503121561249457600080fd5b823591506124a460208401612465565b90509250929050565b80356001600160401b038116811461247c57600080fd5b600080600080608085870312156124da57600080fd5b843593506124ea602086016124ad565b92506124f8604086016124ad565b9150612506606086016124ad565b905092959194509250565b60008083601f84011261252357600080fd5b5081356001600160401b0381111561253a57600080fd5b6020830191508360208260051b850101111561255557600080fd5b9250929050565b60008060008060008060a0878903121561257557600080fd5b8635955060208701359450604087013593506060870135925060808701356001600160401b038111156125a757600080fd5b6125b389828a01612511565b979a9699509497509295939492505050565b6000806000606084860312156125da57600080fd5b505081359360208301359350604090920135919050565b600080600080600080600060c0888a03121561260c57600080fd5b8735965061261c60208901612465565b955060408801359450606088013593506080880135925060a08801356001600160401b0381111561264c57600080fd5b6126588a828b01612511565b989b979a50959850939692959293505050565b6000806040838503121561267e57600080fd5b50508035926020909101359150565b600080600080608085870312156126a357600080fd5b5050823594602084013594506040840135936060013592509050565b634e487b7160e01b600052601160045260246000fd5b8082018082111561078b5761078b6126bf565b6001600160801b03828116828216039080821115612708576127086126bf565b5092915050565b6bffffffffffffffffffffffff19606098891b81168252601482019790975260348101959095529290951b90931660548301526068820192909252608881019290925260a882015260c80190565b8181038181111561078b5761078b6126bf565b808202811582820484141761078b5761078b6126bf565b6000826127a457634e487b7160e01b600052601260045260246000fd5b500490565b6001600160801b03818116838216019080821115612708576127086126bf565b6000602082840312156127db57600080fd5b8151611c468161243a565b634e487b7160e01b600052603260045260246000fd5b6000825160005b8181101561281d5760208186018101518583015201612803565b50600092019182525091905056fe68e79a7bf1e0bc45d0a330c573bc367f9cf464fd326078812f301165fbda4ef1a2646970667358221220ca01576849279b420fa14fcb4b2abd6d360cffe3b46381a6663b21b8e162f57264736f6c63430008180033","opcodes":"PUSH2 0x120 PUSH1 0x40 MSTORE CALLVALUE DUP1 ISZERO PUSH3 0x12 JUMPI PUSH1 0x0 DUP1 REVERT JUMPDEST POP PUSH1 0x40 MLOAD PUSH3 0x2CE5 CODESIZE SUB DUP1 PUSH3 0x2CE5 DUP4 CODECOPY DUP2 ADD PUSH1 0x40 DUP2 SWAP1 MSTORE PUSH3 0x35 SWAP2 PUSH3 0x325 JUMP JUMPDEST PUSH1 0x1 DUP1 SLOAD PUSH1 0xFF NOT AND DUP2 SSTORE PUSH1 0x2 SSTORE PUSH1 0x1 PUSH1 0x1 PUSH1 0xA0 SHL SUB DUP9 AND PUSH3 0x6A JUMPI PUSH1 0x40 MLOAD PUSH4 0xE6C4247B PUSH1 0xE0 SHL DUP2 MSTORE PUSH1 0x4 ADD PUSH1 0x40 MLOAD DUP1 SWAP2 SUB SWAP1 REVERT JUMPDEST PUSH2 0x2710 DUP8 PUSH2 0xFFFF AND GT ISZERO PUSH3 0x92 JUMPI PUSH1 0x40 MLOAD PUSH4 0x648564D3 PUSH1 0xE0 SHL DUP2 MSTORE PUSH1 0x4 ADD PUSH1 0x40 MLOAD DUP1 SWAP2 SUB SWAP1 REVERT JUMPDEST PUSH2 0x2710 DUP7 PUSH2 0xFFFF AND GT ISZERO PUSH3 0xBA JUMPI PUSH1 0x40 MLOAD PUSH4 0x58D620B3 PUSH1 0xE0 SHL DUP2 MSTORE PUSH1 0x4 ADD PUSH1 0x40 MLOAD DUP1 SWAP2 SUB SWAP1 REVERT JUMPDEST DUP5 PUSH1 0x0 SUB PUSH3 0xDC JUMPI PUSH1 0x40 MLOAD PUSH4 0x4F4940EB PUSH1 0xE1 SHL DUP2 MSTORE PUSH1 0x4 ADD PUSH1 0x40 MLOAD DUP1 SWAP2 SUB SWAP1 REVERT JUMPDEST PUSH1 0x1 PUSH1 0x1 PUSH1 0xA0 SHL SUB DUP5 AND PUSH3 0x104 JUMPI PUSH1 0x40 MLOAD PUSH4 0xE6C4247B PUSH1 0xE0 SHL DUP2 MSTORE PUSH1 0x4 ADD PUSH1 0x40 MLOAD DUP1 SWAP2 SUB SWAP1 REVERT JUMPDEST PUSH1 0x1 PUSH1 0x1 PUSH1 0xA0 SHL SUB DUP4 AND PUSH3 0x12C JUMPI PUSH1 0x40 MLOAD PUSH4 0xCFE2EA63 PUSH1 0xE0 SHL DUP2 MSTORE PUSH1 0x4 ADD PUSH1 0x40 MLOAD DUP1 SWAP2 SUB SWAP1 REVERT JUMPDEST PUSH1 0x1 PUSH1 0x1 PUSH1 0xA0 SHL SUB DUP3 AND PUSH3 0x154 JUMPI PUSH1 0x40 MLOAD PUSH4 0xE6C4247B PUSH1 0xE0 SHL DUP2 MSTORE PUSH1 0x4 ADD PUSH1 0x40 MLOAD DUP1 SWAP2 SUB SWAP1 REVERT JUMPDEST PUSH1 0x1 PUSH1 0x1 PUSH1 0xA0 SHL SUB DUP2 AND PUSH3 0x17C JUMPI PUSH1 0x40 MLOAD PUSH4 0xE6C4247B PUSH1 0xE0 SHL DUP2 MSTORE PUSH1 0x4 ADD PUSH1 0x40 MLOAD DUP1 SWAP2 SUB SWAP1 REVERT JUMPDEST PUSH1 0x1 PUSH1 0x1 PUSH1 0xA0 SHL SUB DUP1 DUP10 AND PUSH1 0x80 MSTORE DUP4 AND PUSH1 0xA0 MSTORE PUSH2 0xFFFF DUP1 DUP9 AND PUSH1 0xC0 MSTORE DUP7 AND PUSH1 0xE0 MSTORE PUSH2 0x100 DUP6 SWAP1 MSTORE PUSH3 0x1B0 PUSH1 0x0 DUP6 PUSH3 0x246 JUMP JUMPDEST POP PUSH3 0x1DD PUSH32 0x68E79A7BF1E0BC45D0A330C573BC367F9CF464FD326078812F301165FBDA4EF1 DUP6 PUSH3 0x246 JUMP JUMPDEST POP PUSH3 0x20A PUSH32 0x65D7A28E3265B37A6474929F336521B332C1681B933F6CB9F3376673440D862A DUP4 PUSH3 0x246 JUMP JUMPDEST POP PUSH3 0x237 PUSH32 0x59A1C48E5837AD7A7F3DCEDCBE129BF3249EC4FBF651FD4F5E2600EAD39FE2F5 DUP3 PUSH3 0x246 JUMP JUMPDEST POP POP POP POP POP POP POP POP POP PUSH3 0x3C4 JUMP JUMPDEST PUSH1 0x0 DUP3 DUP2 MSTORE PUSH1 0x20 DUP2 DUP2 MSTORE PUSH1 0x40 DUP1 DUP4 KECCAK256 PUSH1 0x1 PUSH1 0x1 PUSH1 0xA0 SHL SUB DUP6 AND DUP5 MSTORE SWAP1 SWAP2 MSTORE DUP2 KECCAK256 SLOAD PUSH1 0xFF AND PUSH3 0x2EB JUMPI PUSH1 0x0 DUP4 DUP2 MSTORE PUSH1 0x20 DUP2 DUP2 MSTORE PUSH1 0x40 DUP1 DUP4 KECCAK256 PUSH1 0x1 PUSH1 0x1 PUSH1 0xA0 SHL SUB DUP7 AND DUP5 MSTORE SWAP1 SWAP2 MSTORE SWAP1 KECCAK256 DUP1 SLOAD PUSH1 0xFF NOT AND PUSH1 0x1 OR SWAP1 SSTORE PUSH3 0x2A2 CALLER SWAP1 JUMP JUMPDEST PUSH1 0x1 PUSH1 0x1 PUSH1 0xA0 SHL SUB AND DUP3 PUSH1 0x1 PUSH1 0x1 PUSH1 0xA0 SHL SUB AND DUP5 PUSH32 0x2F8788117E7EFF1D82E926EC794901D17C78024A50270940304540A733656F0D PUSH1 0x40 MLOAD PUSH1 0x40 MLOAD DUP1 SWAP2 SUB SWAP1 LOG4 POP PUSH1 0x1 PUSH3 0x2EF JUMP JUMPDEST POP PUSH1 0x0 JUMPDEST SWAP3 SWAP2 POP POP JUMP JUMPDEST DUP1 MLOAD PUSH1 0x1 PUSH1 0x1 PUSH1 0xA0 SHL SUB DUP2 AND DUP2 EQ PUSH3 0x30D JUMPI PUSH1 0x0 DUP1 REVERT JUMPDEST SWAP2 SWAP1 POP JUMP JUMPDEST DUP1 MLOAD PUSH2 0xFFFF DUP2 AND DUP2 EQ PUSH3 0x30D JUMPI PUSH1 0x0 DUP1 REVERT JUMPDEST PUSH1 0x0 DUP1 PUSH1 0x0 DUP1 PUSH1 0x0 DUP1 PUSH1 0x0 DUP1 PUSH2 0x100 DUP10 DUP12 SUB SLT ISZERO PUSH3 0x343 JUMPI PUSH1 0x0 DUP1 REVERT JUMPDEST PUSH3 0x34E DUP10 PUSH3 0x2F5 JUMP JUMPDEST SWAP8 POP PUSH3 0x35E PUSH1 0x20 DUP11 ADD PUSH3 0x312 JUMP JUMPDEST SWAP7 POP PUSH3 0x36E PUSH1 0x40 DUP11 ADD PUSH3 0x312 JUMP JUMPDEST SWAP6 POP PUSH1 0x60 DUP10 ADD MLOAD SWAP5 POP PUSH3 0x385 PUSH1 0x80 DUP11 ADD PUSH3 0x2F5 JUMP JUMPDEST SWAP4 POP PUSH3 0x395 PUSH1 0xA0 DUP11 ADD PUSH3 0x2F5 JUMP JUMPDEST SWAP3 POP PUSH3 0x3A5 PUSH1 0xC0 DUP11 ADD PUSH3 0x2F5 JUMP JUMPDEST SWAP2 POP PUSH3 0x3B5 PUSH1 0xE0 DUP11 ADD PUSH3 0x2F5 JUMP JUMPDEST SWAP1 POP SWAP3 SWAP6 SWAP9 POP SWAP3 SWAP6 SWAP9 SWAP1 SWAP4 SWAP7 POP JUMP JUMPDEST PUSH1 0x80 MLOAD PUSH1 0xA0 MLOAD PUSH1 0xC0 MLOAD PUSH1 0xE0 MLOAD PUSH2 0x100 MLOAD PUSH2 0x2881 PUSH3 0x464 PUSH1 0x0 CODECOPY PUSH1 0x0 DUP2 DUP2 PUSH2 0x4A3 ADD MSTORE PUSH2 0x1270 ADD MSTORE PUSH1 0x0 PUSH2 0x331 ADD MSTORE PUSH1 0x0 DUP2 DUP2 PUSH2 0x4CA ADD MSTORE PUSH2 0x13B8 ADD MSTORE PUSH1 0x0 DUP2 DUP2 PUSH2 0x535 ADD MSTORE DUP2 DUP2 PUSH2 0xFCC ADD MSTORE DUP2 DUP2 PUSH2 0x1806 ADD MSTORE DUP2 DUP2 PUSH2 0x1947 ADD MSTORE PUSH2 0x196E ADD MSTORE PUSH1 0x0 DUP2 DUP2 PUSH2 0x738 ADD MSTORE DUP2 DUP2 PUSH2 0xD96 ADD MSTORE DUP2 DUP2 PUSH2 0xFA2 ADD MSTORE DUP2 DUP2 PUSH2 0x1062 ADD MSTORE DUP2 DUP2 PUSH2 0x1337 ADD MSTORE DUP2 DUP2 PUSH2 0x1384 ADD MSTORE DUP2 DUP2 PUSH2 0x17DC ADD MSTORE PUSH2 0x1925 ADD MSTORE PUSH2 0x2881 PUSH1 0x0 RETURN INVALID PUSH1 0x80 PUSH1 0x40 MSTORE CALLVALUE DUP1 ISZERO PUSH2 0x10 JUMPI PUSH1 0x0 DUP1 REVERT JUMPDEST POP PUSH1 0x4 CALLDATASIZE LT PUSH2 0x248 JUMPI PUSH1 0x0 CALLDATALOAD PUSH1 0xE0 SHR DUP1 PUSH4 0x5C975ABB GT PUSH2 0x13B JUMPI DUP1 PUSH4 0xA217FDDF GT PUSH2 0xB8 JUMPI DUP1 PUSH4 0xDDA062D4 GT PUSH2 0x7C JUMPI DUP1 PUSH4 0xDDA062D4 EQ PUSH2 0x64B JUMPI DUP1 PUSH4 0xE63AB1E9 EQ PUSH2 0x655 JUMPI DUP1 PUSH4 0xE684D718 EQ PUSH2 0x67C JUMPI DUP1 PUSH4 0xE81248D2 EQ PUSH2 0x720 JUMPI DUP1 PUSH4 0xE9CBD822 EQ PUSH2 0x733 JUMPI PUSH1 0x0 DUP1 REVERT JUMPDEST DUP1 PUSH4 0xA217FDDF EQ PUSH2 0x5FD JUMPI DUP1 PUSH4 0xB692D265 EQ PUSH2 0x605 JUMPI DUP1 PUSH4 0xC839D8DC EQ PUSH2 0x618 JUMPI DUP1 PUSH4 0xCD9EA342 EQ PUSH2 0x62B JUMPI DUP1 PUSH4 0xD547741F EQ PUSH2 0x638 JUMPI PUSH1 0x0 DUP1 REVERT JUMPDEST DUP1 PUSH4 0x6E4322E5 GT PUSH2 0xFF JUMPI DUP1 PUSH4 0x6E4322E5 EQ PUSH2 0x5A9 JUMPI DUP1 PUSH4 0x8197EBA8 EQ PUSH2 0x5BC JUMPI DUP1 PUSH4 0x8456CB59 EQ PUSH2 0x5CF JUMPI DUP1 PUSH4 0x8CD3B5E8 EQ PUSH2 0x5D7 JUMPI DUP1 PUSH4 0x91D14854 EQ PUSH2 0x5EA JUMPI PUSH1 0x0 DUP1 REVERT JUMPDEST DUP1 PUSH4 0x5C975ABB EQ PUSH2 0x512 JUMPI DUP1 PUSH4 0x601EE229 EQ PUSH2 0x51D JUMPI DUP1 PUSH4 0x61D027B3 EQ PUSH2 0x530 JUMPI DUP1 PUSH4 0x686C3DB4 EQ PUSH2 0x56F JUMPI DUP1 PUSH4 0x6E1D616E EQ PUSH2 0x582 JUMPI PUSH1 0x0 DUP1 REVERT JUMPDEST DUP1 PUSH4 0x2F2FF15D GT PUSH2 0x1C9 JUMPI DUP1 PUSH4 0x3F4BA83A GT PUSH2 0x18D JUMPI DUP1 PUSH4 0x3F4BA83A EQ PUSH2 0x496 JUMPI DUP1 PUSH4 0x41B3D185 EQ PUSH2 0x49E JUMPI DUP1 PUSH4 0x421E3CD6 EQ PUSH2 0x4C5 JUMPI DUP1 PUSH4 0x4231B0BD EQ PUSH2 0x4EC JUMPI DUP1 PUSH4 0x5463C3E8 EQ PUSH2 0x4FF JUMPI PUSH1 0x0 DUP1 REVERT JUMPDEST DUP1 PUSH4 0x2F2FF15D EQ PUSH2 0x366 JUMPI DUP1 PUSH4 0x3145C3CD EQ PUSH2 0x379 JUMPI DUP1 PUSH4 0x316A65E5 EQ PUSH2 0x38C JUMPI DUP1 PUSH4 0x36568ABE EQ PUSH2 0x470 JUMPI DUP1 PUSH4 0x36CB2920 EQ PUSH2 0x483 JUMPI PUSH1 0x0 DUP1 REVERT JUMPDEST DUP1 PUSH4 0x1FF1292F GT PUSH2 0x210 JUMPI DUP1 PUSH4 0x1FF1292F EQ PUSH2 0x2DA JUMPI DUP1 PUSH4 0x24891C55 EQ PUSH2 0x2ED JUMPI DUP1 PUSH4 0x248A9CA3 EQ PUSH2 0x300 JUMPI DUP1 PUSH4 0x249D39E9 EQ PUSH2 0x323 JUMPI DUP1 PUSH4 0x24A9D853 EQ PUSH2 0x32C JUMPI PUSH1 0x0 DUP1 REVERT JUMPDEST DUP1 PUSH4 0x1FFC9A7 EQ PUSH2 0x24D JUMPI DUP1 PUSH4 0x6276121 EQ PUSH2 0x275 JUMPI DUP1 PUSH4 0x7E2CEA5 EQ PUSH2 0x28F JUMPI DUP1 PUSH4 0x161D263E EQ PUSH2 0x2B2 JUMPI DUP1 PUSH4 0x1CD249E6 EQ PUSH2 0x2C7 JUMPI JUMPDEST PUSH1 0x0 DUP1 REVERT JUMPDEST PUSH2 0x260 PUSH2 0x25B CALLDATASIZE PUSH1 0x4 PUSH2 0x23F7 JUMP JUMPDEST PUSH2 0x75A JUMP JUMPDEST PUSH1 0x40 MLOAD SWAP1 ISZERO ISZERO DUP2 MSTORE PUSH1 0x20 ADD JUMPDEST PUSH1 0x40 MLOAD DUP1 SWAP2 SUB SWAP1 RETURN JUMPDEST PUSH2 0x27D PUSH1 0xA DUP2 JUMP JUMPDEST PUSH1 0x40 MLOAD PUSH1 0xFF SWAP1 SWAP2 AND DUP2 MSTORE PUSH1 0x20 ADD PUSH2 0x26C JUMP JUMPDEST PUSH2 0x2A4 PUSH1 0x0 DUP1 MLOAD PUSH1 0x20 PUSH2 0x282C DUP4 CODECOPY DUP2 MLOAD SWAP2 MSTORE DUP2 JUMP JUMPDEST PUSH1 0x40 MLOAD SWAP1 DUP2 MSTORE PUSH1 0x20 ADD PUSH2 0x26C JUMP JUMPDEST PUSH2 0x2C5 PUSH2 0x2C0 CALLDATASIZE PUSH1 0x4 PUSH2 0x2421 JUMP JUMPDEST PUSH2 0x791 JUMP JUMPDEST STOP JUMPDEST PUSH2 0x2C5 PUSH2 0x2D5 CALLDATASIZE PUSH1 0x4 PUSH2 0x2421 JUMP JUMPDEST PUSH2 0x850 JUMP JUMPDEST PUSH2 0x2C5 PUSH2 0x2E8 CALLDATASIZE PUSH1 0x4 PUSH2 0x2448 JUMP JUMPDEST PUSH2 0x8DD JUMP JUMPDEST PUSH2 0x2C5 PUSH2 0x2FB CALLDATASIZE PUSH1 0x4 PUSH2 0x2421 JUMP JUMPDEST PUSH2 0x930 JUMP JUMPDEST PUSH2 0x2A4 PUSH2 0x30E CALLDATASIZE PUSH1 0x4 PUSH2 0x2421 JUMP JUMPDEST PUSH1 0x0 SWAP1 DUP2 MSTORE PUSH1 0x20 DUP2 SWAP1 MSTORE PUSH1 0x40 SWAP1 KECCAK256 PUSH1 0x1 ADD SLOAD SWAP1 JUMP JUMPDEST PUSH2 0x2A4 PUSH2 0x2710 DUP2 JUMP JUMPDEST PUSH2 0x353 PUSH32 0x0 DUP2 JUMP JUMPDEST PUSH1 0x40 MLOAD PUSH2 0xFFFF SWAP1 SWAP2 AND DUP2 MSTORE PUSH1 0x20 ADD PUSH2 0x26C JUMP JUMPDEST PUSH2 0x2C5 PUSH2 0x374 CALLDATASIZE PUSH1 0x4 PUSH2 0x2481 JUMP JUMPDEST PUSH2 0x9E1 JUMP JUMPDEST PUSH2 0x2C5 PUSH2 0x387 CALLDATASIZE PUSH1 0x4 PUSH2 0x2421 JUMP JUMPDEST PUSH2 0xA0C JUMP JUMPDEST PUSH2 0x40A PUSH2 0x39A CALLDATASIZE PUSH1 0x4 PUSH2 0x2421 JUMP JUMPDEST PUSH1 0x4 PUSH1 0x20 DUP2 SWAP1 MSTORE PUSH1 0x0 SWAP2 DUP3 MSTORE PUSH1 0x40 SWAP1 SWAP2 KECCAK256 DUP1 SLOAD PUSH1 0x1 DUP3 ADD SLOAD PUSH1 0x2 DUP4 ADD SLOAD PUSH1 0x3 DUP5 ADD SLOAD SWAP4 SWAP1 SWAP5 ADD SLOAD PUSH1 0x1 PUSH1 0x1 PUSH1 0x40 SHL SUB DUP1 DUP5 AND SWAP6 PUSH1 0x1 PUSH1 0x40 SHL DUP6 DIV DUP3 AND SWAP6 PUSH1 0x1 PUSH1 0x80 SHL DUP7 DIV DUP4 AND SWAP6 PUSH1 0x1 PUSH1 0xC0 SHL SWAP1 DIV SWAP1 SWAP3 AND SWAP4 PUSH1 0xFF DUP2 AND SWAP4 PUSH2 0x100 SWAP1 SWAP2 DIV PUSH1 0x1 PUSH1 0x1 PUSH1 0x80 SHL SUB SWAP1 DUP2 AND SWAP4 SWAP3 AND SWAP2 SWAP1 DUP10 JUMP JUMPDEST PUSH1 0x40 DUP1 MLOAD PUSH1 0x1 PUSH1 0x1 PUSH1 0x40 SHL SUB SWAP11 DUP12 AND DUP2 MSTORE SWAP9 DUP11 AND PUSH1 0x20 DUP11 ADD MSTORE SWAP7 DUP10 AND SWAP7 DUP9 ADD SWAP7 SWAP1 SWAP7 MSTORE SWAP7 SWAP1 SWAP4 AND PUSH1 0x60 DUP7 ADD MSTORE PUSH1 0xFF SWAP1 SWAP2 AND PUSH1 0x80 DUP6 ADD MSTORE PUSH1 0x1 PUSH1 0x1 PUSH1 0x80 SHL SUB SWAP1 DUP2 AND PUSH1 0xA0 DUP6 ADD MSTORE AND PUSH1 0xC0 DUP4 ADD MSTORE PUSH1 0xE0 DUP3 ADD SWAP3 SWAP1 SWAP3 MSTORE PUSH2 0x100 DUP2 ADD SWAP2 SWAP1 SWAP2 MSTORE PUSH2 0x120 ADD PUSH2 0x26C JUMP JUMPDEST PUSH2 0x2C5 PUSH2 0x47E CALLDATASIZE PUSH1 0x4 PUSH2 0x2481 JUMP JUMPDEST PUSH2 0xA85 JUMP JUMPDEST PUSH2 0x2C5 PUSH2 0x491 CALLDATASIZE PUSH1 0x4 PUSH2 0x24C4 JUMP JUMPDEST PUSH2 0xABD JUMP JUMPDEST PUSH2 0x2C5 PUSH2 0xBF8 JUMP JUMPDEST PUSH2 0x2A4 PUSH32 0x0 DUP2 JUMP JUMPDEST PUSH2 0x353 PUSH32 0x0 DUP2 JUMP JUMPDEST PUSH2 0x2C5 PUSH2 0x4FA CALLDATASIZE PUSH1 0x4 PUSH2 0x2421 JUMP JUMPDEST PUSH2 0xC2D JUMP JUMPDEST PUSH2 0x2C5 PUSH2 0x50D CALLDATASIZE PUSH1 0x4 PUSH2 0x255C JUMP JUMPDEST PUSH2 0xE02 JUMP JUMPDEST PUSH1 0x1 SLOAD PUSH1 0xFF AND PUSH2 0x260 JUMP JUMPDEST PUSH2 0x2C5 PUSH2 0x52B CALLDATASIZE PUSH1 0x4 PUSH2 0x2421 JUMP JUMPDEST PUSH2 0x10D7 JUMP JUMPDEST PUSH2 0x557 PUSH32 0x0 DUP2 JUMP JUMPDEST PUSH1 0x40 MLOAD PUSH1 0x1 PUSH1 0x1 PUSH1 0xA0 SHL SUB SWAP1 SWAP2 AND DUP2 MSTORE PUSH1 0x20 ADD PUSH2 0x26C JUMP JUMPDEST PUSH2 0x2C5 PUSH2 0x57D CALLDATASIZE PUSH1 0x4 PUSH2 0x25C5 JUMP JUMPDEST PUSH2 0x11A9 JUMP JUMPDEST PUSH2 0x2A4 PUSH32 0x59A1C48E5837AD7A7F3DCEDCBE129BF3249EC4FBF651FD4F5E2600EAD39FE2F5 DUP2 JUMP JUMPDEST PUSH2 0x2C5 PUSH2 0x5B7 CALLDATASIZE PUSH1 0x4 PUSH2 0x25F1 JUMP JUMPDEST PUSH2 0x15F0 JUMP JUMPDEST PUSH2 0x2C5 PUSH2 0x5CA CALLDATASIZE PUSH1 0x4 PUSH2 0x2421 JUMP JUMPDEST PUSH2 0x1890 JUMP JUMPDEST PUSH2 0x2C5 PUSH2 0x1A22 JUMP JUMPDEST PUSH2 0x2C5 PUSH2 0x5E5 CALLDATASIZE PUSH1 0x4 PUSH2 0x266B JUMP JUMPDEST PUSH2 0x1A54 JUMP JUMPDEST PUSH2 0x260 PUSH2 0x5F8 CALLDATASIZE PUSH1 0x4 PUSH2 0x2481 JUMP JUMPDEST PUSH2 0x1BBB JUMP JUMPDEST PUSH2 0x2A4 PUSH1 0x0 DUP2 JUMP JUMPDEST PUSH2 0x2A4 PUSH2 0x613 CALLDATASIZE PUSH1 0x4 PUSH2 0x2421 JUMP JUMPDEST PUSH2 0x1BE4 JUMP JUMPDEST PUSH2 0x2C5 PUSH2 0x626 CALLDATASIZE PUSH1 0x4 PUSH2 0x268D JUMP JUMPDEST PUSH2 0x1C4D JUMP JUMPDEST PUSH1 0x3 SLOAD PUSH2 0x260 SWAP1 PUSH1 0xFF AND DUP2 JUMP JUMPDEST PUSH2 0x2C5 PUSH2 0x646 CALLDATASIZE PUSH1 0x4 PUSH2 0x2481 JUMP JUMPDEST PUSH2 0x1D21 JUMP JUMPDEST PUSH2 0x2A4 PUSH3 0xED4E00 DUP2 JUMP JUMPDEST PUSH2 0x2A4 PUSH32 0x65D7A28E3265B37A6474929F336521B332C1681B933F6CB9F3376673440D862A DUP2 JUMP JUMPDEST PUSH2 0x6DF PUSH2 0x68A CALLDATASIZE PUSH1 0x4 PUSH2 0x2481 JUMP JUMPDEST PUSH1 0x5 PUSH1 0x20 SWAP1 DUP2 MSTORE PUSH1 0x0 SWAP3 DUP4 MSTORE PUSH1 0x40 DUP1 DUP5 KECCAK256 SWAP1 SWAP2 MSTORE SWAP1 DUP3 MSTORE SWAP1 KECCAK256 DUP1 SLOAD PUSH1 0x1 DUP3 ADD SLOAD PUSH1 0x2 DUP4 ADD SLOAD PUSH1 0x3 SWAP1 SWAP4 ADD SLOAD PUSH1 0x1 PUSH1 0x1 PUSH1 0x80 SHL SUB DUP1 DUP5 AND SWAP5 PUSH1 0x1 PUSH1 0x80 SHL SWAP1 SWAP5 DIV DUP2 AND SWAP4 SWAP3 AND SWAP2 SWAP1 PUSH1 0xFF DUP1 DUP3 AND SWAP2 PUSH2 0x100 SWAP1 DIV AND DUP7 JUMP JUMPDEST PUSH1 0x40 DUP1 MLOAD PUSH1 0x1 PUSH1 0x1 PUSH1 0x80 SHL SUB SWAP8 DUP9 AND DUP2 MSTORE SWAP6 DUP8 AND PUSH1 0x20 DUP8 ADD MSTORE SWAP4 SWAP1 SWAP6 AND SWAP3 DUP5 ADD SWAP3 SWAP1 SWAP3 MSTORE PUSH1 0x60 DUP4 ADD MSTORE PUSH1 0xFF AND PUSH1 0x80 DUP3 ADD MSTORE SWAP1 ISZERO ISZERO PUSH1 0xA0 DUP3 ADD MSTORE PUSH1 0xC0 ADD PUSH2 0x26C JUMP JUMPDEST PUSH2 0x2C5 PUSH2 0x72E CALLDATASIZE PUSH1 0x4 PUSH2 0x268D JUMP JUMPDEST PUSH2 0x1D46 JUMP JUMPDEST PUSH2 0x557 PUSH32 0x0 DUP2 JUMP JUMPDEST PUSH1 0x0 PUSH1 0x1 PUSH1 0x1 PUSH1 0xE0 SHL SUB NOT DUP3 AND PUSH4 0x7965DB0B PUSH1 0xE0 SHL EQ DUP1 PUSH2 0x78B JUMPI POP PUSH4 0x1FFC9A7 PUSH1 0xE0 SHL PUSH1 0x1 PUSH1 0x1 PUSH1 0xE0 SHL SUB NOT DUP4 AND EQ JUMPDEST SWAP3 SWAP2 POP POP JUMP JUMPDEST PUSH1 0x0 DUP1 MLOAD PUSH1 0x20 PUSH2 0x282C DUP4 CODECOPY DUP2 MLOAD SWAP2 MSTORE PUSH2 0x7A9 DUP2 PUSH2 0x1DC6 JUMP JUMPDEST PUSH1 0x0 DUP3 DUP2 MSTORE PUSH1 0x4 PUSH1 0x20 MSTORE PUSH1 0x40 SWAP1 KECCAK256 PUSH1 0x1 DUP1 DUP3 ADD SLOAD PUSH1 0xFF AND EQ PUSH2 0x7DE JUMPI PUSH1 0x40 MLOAD PUSH4 0x63E0F9CF PUSH1 0xE1 SHL DUP2 MSTORE PUSH1 0x4 ADD PUSH1 0x40 MLOAD DUP1 SWAP2 SUB SWAP1 REVERT JUMPDEST PUSH1 0x1 DUP2 ADD SLOAD PUSH2 0x100 SWAP1 DIV PUSH1 0x1 PUSH1 0x1 PUSH1 0x80 SHL SUB AND PUSH1 0x0 SUB PUSH2 0x811 JUMPI PUSH1 0x40 MLOAD PUSH4 0xF2B6559 PUSH1 0xE4 SHL DUP2 MSTORE PUSH1 0x4 ADD PUSH1 0x40 MLOAD DUP1 SWAP2 SUB SWAP1 REVERT JUMPDEST PUSH1 0x1 DUP2 ADD DUP1 SLOAD PUSH1 0xFF NOT AND PUSH1 0x2 OR SWAP1 SSTORE PUSH1 0x40 MLOAD DUP4 SWAP1 PUSH32 0x4847A6DDBF4C912F1F99F61AA3F7ABD920B5C1D300F4ED628DEE038EF7DDEFCB SWAP1 PUSH1 0x0 SWAP1 LOG2 POP POP POP JUMP JUMPDEST PUSH1 0x0 DUP1 MLOAD PUSH1 0x20 PUSH2 0x282C DUP4 CODECOPY DUP2 MLOAD SWAP2 MSTORE PUSH2 0x868 DUP2 PUSH2 0x1DC6 JUMP JUMPDEST PUSH1 0x0 DUP3 DUP2 MSTORE PUSH1 0x4 PUSH1 0x20 MSTORE PUSH1 0x40 SWAP1 KECCAK256 PUSH1 0x1 DUP2 ADD SLOAD PUSH1 0xFF AND PUSH1 0x2 EQ PUSH2 0x89E JUMPI PUSH1 0x40 MLOAD PUSH4 0xF6C42CB5 PUSH1 0xE0 SHL DUP2 MSTORE PUSH1 0x4 ADD PUSH1 0x40 MLOAD DUP1 SWAP2 SUB SWAP1 REVERT JUMPDEST PUSH1 0x1 DUP2 ADD DUP1 SLOAD PUSH1 0xFF NOT AND PUSH1 0x3 OR SWAP1 SSTORE PUSH1 0x40 MLOAD DUP4 SWAP1 PUSH32 0xAC603D57C7726546B797AF9D2815978752F98539D10067C831D5330C3BFC1AEA SWAP1 PUSH1 0x0 SWAP1 LOG2 POP POP POP JUMP JUMPDEST PUSH1 0x0 PUSH2 0x8E8 DUP2 PUSH2 0x1DC6 JUMP JUMPDEST PUSH1 0x3 DUP1 SLOAD PUSH1 0xFF NOT AND DUP4 ISZERO ISZERO SWAP1 DUP2 OR SWAP1 SWAP2 SSTORE PUSH1 0x40 MLOAD SWAP1 DUP2 MSTORE PUSH32 0x3AA6186DB6AFBA61EC3731F16E23FDEA8DFA0DFE10D7C05942D11FDB365DB031 SWAP1 PUSH1 0x20 ADD PUSH1 0x40 MLOAD DUP1 SWAP2 SUB SWAP1 LOG1 POP POP JUMP JUMPDEST PUSH1 0x0 DUP1 MLOAD PUSH1 0x20 PUSH2 0x282C DUP4 CODECOPY DUP2 MLOAD SWAP2 MSTORE PUSH2 0x948 DUP2 PUSH2 0x1DC6 JUMP JUMPDEST PUSH1 0x0 DUP3 DUP2 MSTORE PUSH1 0x4 PUSH1 0x20 MSTORE PUSH1 0x40 SWAP1 KECCAK256 PUSH1 0x1 DUP1 DUP3 ADD SLOAD PUSH1 0xFF AND EQ PUSH2 0x97D JUMPI PUSH1 0x40 MLOAD PUSH4 0x63E0F9CF PUSH1 0xE1 SHL DUP2 MSTORE PUSH1 0x4 ADD PUSH1 0x40 MLOAD DUP1 SWAP2 SUB SWAP1 REVERT JUMPDEST PUSH1 0x1 DUP2 ADD SLOAD PUSH2 0x100 SWAP1 DIV PUSH1 0x1 PUSH1 0x1 PUSH1 0x80 SHL SUB AND PUSH1 0x0 SUB PUSH2 0x9B0 JUMPI PUSH1 0x40 MLOAD PUSH4 0xF2B6559 PUSH1 0xE4 SHL DUP2 MSTORE PUSH1 0x4 ADD PUSH1 0x40 MLOAD DUP1 SWAP2 SUB SWAP1 REVERT JUMPDEST DUP1 SLOAD PUSH1 0x1 PUSH1 0x40 SHL SWAP1 DIV PUSH1 0x1 PUSH1 0x1 PUSH1 0x40 SHL SUB AND TIMESTAMP LT ISZERO PUSH2 0x811 JUMPI PUSH1 0x40 MLOAD PUSH3 0x149309 PUSH1 0xE0 SHL DUP2 MSTORE PUSH1 0x4 ADD PUSH1 0x40 MLOAD DUP1 SWAP2 SUB SWAP1 REVERT JUMPDEST PUSH1 0x0 DUP3 DUP2 MSTORE PUSH1 0x20 DUP2 SWAP1 MSTORE PUSH1 0x40 SWAP1 KECCAK256 PUSH1 0x1 ADD SLOAD PUSH2 0x9FC DUP2 PUSH2 0x1DC6 JUMP JUMPDEST PUSH2 0xA06 DUP4 DUP4 PUSH2 0x1DD0 JUMP JUMPDEST POP POP POP POP JUMP JUMPDEST PUSH1 0x0 DUP1 MLOAD PUSH1 0x20 PUSH2 0x282C DUP4 CODECOPY DUP2 MLOAD SWAP2 MSTORE PUSH2 0xA24 DUP2 PUSH2 0x1DC6 JUMP JUMPDEST PUSH1 0x0 DUP3 DUP2 MSTORE PUSH1 0x4 PUSH1 0x20 MSTORE PUSH1 0x40 SWAP1 KECCAK256 PUSH1 0x1 DUP2 ADD SLOAD PUSH1 0xFF AND PUSH1 0x2 EQ PUSH2 0xA5A JUMPI PUSH1 0x40 MLOAD PUSH4 0xF6C42CB5 PUSH1 0xE0 SHL DUP2 MSTORE PUSH1 0x4 ADD PUSH1 0x40 MLOAD DUP1 SWAP2 SUB SWAP1 REVERT JUMPDEST DUP1 SLOAD PUSH1 0x1 PUSH1 0x1 PUSH1 0x40 SHL SUB AND TIMESTAMP LT ISZERO PUSH2 0x89E JUMPI PUSH1 0x40 MLOAD PUSH4 0x47CE041 PUSH1 0xE2 SHL DUP2 MSTORE PUSH1 0x4 ADD PUSH1 0x40 MLOAD DUP1 SWAP2 SUB SWAP1 REVERT JUMPDEST PUSH1 0x1 PUSH1 0x1 PUSH1 0xA0 SHL SUB DUP2 AND CALLER EQ PUSH2 0xAAE JUMPI PUSH1 0x40 MLOAD PUSH4 0x334BD919 PUSH1 0xE1 SHL DUP2 MSTORE PUSH1 0x4 ADD PUSH1 0x40 MLOAD DUP1 SWAP2 SUB SWAP1 REVERT JUMPDEST PUSH2 0xAB8 DUP3 DUP3 PUSH2 0x1E62 JUMP JUMPDEST POP POP POP JUMP JUMPDEST PUSH1 0x0 DUP1 MLOAD PUSH1 0x20 PUSH2 0x282C DUP4 CODECOPY DUP2 MLOAD SWAP2 MSTORE PUSH2 0xAD5 DUP2 PUSH2 0x1DC6 JUMP JUMPDEST PUSH1 0x0 DUP6 DUP2 MSTORE PUSH1 0x4 PUSH1 0x20 MSTORE PUSH1 0x40 SWAP1 KECCAK256 PUSH1 0x1 DUP2 ADD SLOAD PUSH1 0xFF AND ISZERO PUSH2 0xB09 JUMPI PUSH1 0x40 MLOAD PUSH4 0x25C6D657 PUSH1 0xE1 SHL DUP2 MSTORE PUSH1 0x4 ADD PUSH1 0x40 MLOAD DUP1 SWAP2 SUB SWAP1 REVERT JUMPDEST DUP5 PUSH1 0x1 PUSH1 0x1 PUSH1 0x40 SHL SUB AND DUP5 PUSH1 0x1 PUSH1 0x1 PUSH1 0x40 SHL SUB AND GT DUP1 PUSH2 0xB3B JUMPI POP DUP3 PUSH1 0x1 PUSH1 0x1 PUSH1 0x40 SHL SUB AND DUP6 PUSH1 0x1 PUSH1 0x1 PUSH1 0x40 SHL SUB AND LT ISZERO JUMPDEST ISZERO PUSH2 0xB59 JUMPI PUSH1 0x40 MLOAD PUSH4 0x536A71AF PUSH1 0xE0 SHL DUP2 MSTORE PUSH1 0x4 ADD PUSH1 0x40 MLOAD DUP1 SWAP2 SUB SWAP1 REVERT JUMPDEST DUP1 SLOAD PUSH1 0x1 PUSH1 0x1 PUSH1 0x40 SHL SUB DUP7 DUP2 AND PUSH1 0x1 PUSH1 0x1 PUSH1 0x80 SHL SUB NOT SWAP1 SWAP3 AND DUP3 OR PUSH1 0x1 PUSH1 0x40 SHL DUP8 DUP4 AND SWAP1 DUP2 MUL SWAP2 SWAP1 SWAP2 OR PUSH8 0xFFFFFFFFFFFFFFFF PUSH1 0x80 SHL NOT AND PUSH1 0x1 PUSH1 0x80 SHL SWAP3 DUP8 AND SWAP3 DUP4 MUL OR DUP5 SSTORE PUSH1 0x1 DUP1 DUP6 ADD DUP1 SLOAD PUSH1 0xFF NOT AND SWAP1 SWAP2 OR SWAP1 SSTORE PUSH1 0x40 DUP1 MLOAD SWAP4 DUP5 MSTORE PUSH1 0x20 DUP5 ADD SWAP2 SWAP1 SWAP2 MSTORE DUP3 ADD MSTORE DUP7 SWAP1 PUSH32 0x5D5AAB8AF204A4135004372EB568FB9048BFEA2555B25C1C5DB092B56013EA58 SWAP1 PUSH1 0x60 ADD PUSH1 0x40 MLOAD DUP1 SWAP2 SUB SWAP1 LOG2 POP POP POP POP POP POP JUMP JUMPDEST PUSH32 0x65D7A28E3265B37A6474929F336521B332C1681B933F6CB9F3376673440D862A PUSH2 0xC22 DUP2 PUSH2 0x1DC6 JUMP JUMPDEST PUSH2 0xC2A PUSH2 0x1ECD JUMP JUMPDEST POP JUMP JUMPDEST PUSH2 0xC35 PUSH2 0x1F1F JUMP JUMPDEST PUSH2 0xC3D PUSH2 0x1F44 JUMP JUMPDEST PUSH1 0x0 DUP2 DUP2 MSTORE PUSH1 0x4 PUSH1 0x20 MSTORE PUSH1 0x40 SWAP1 KECCAK256 PUSH1 0x1 DUP2 ADD SLOAD PUSH1 0xFF AND PUSH1 0x4 NOT ADD PUSH2 0xC74 JUMPI PUSH1 0x40 MLOAD PUSH4 0x121C1CB5 PUSH1 0xE2 SHL DUP2 MSTORE PUSH1 0x4 ADD PUSH1 0x40 MLOAD DUP1 SWAP2 SUB SWAP1 REVERT JUMPDEST PUSH1 0x0 DUP3 DUP2 MSTORE PUSH1 0x5 PUSH1 0x20 SWAP1 DUP2 MSTORE PUSH1 0x40 DUP1 DUP4 KECCAK256 CALLER DUP5 MSTORE SWAP1 SWAP2 MSTORE SWAP1 KECCAK256 PUSH1 0x3 DUP2 ADD SLOAD PUSH2 0x100 SWAP1 DIV PUSH1 0xFF AND ISZERO PUSH2 0xCB8 JUMPI PUSH1 0x40 MLOAD PUSH4 0xC8D9EAB PUSH1 0xE3 SHL DUP2 MSTORE PUSH1 0x4 ADD PUSH1 0x40 MLOAD DUP1 SWAP2 SUB SWAP1 REVERT JUMPDEST DUP1 SLOAD PUSH1 0x0 SWAP1 PUSH2 0xCD9 SWAP1 PUSH1 0x1 PUSH1 0x1 PUSH1 0x80 SHL SUB PUSH1 0x1 PUSH1 0x80 SHL DUP3 DIV DUP2 AND SWAP2 AND PUSH2 0x26D5 JUMP JUMPDEST SWAP1 POP DUP1 PUSH1 0x0 SUB PUSH2 0xCFC JUMPI PUSH1 0x40 MLOAD PUSH4 0x5E096DAF PUSH1 0xE0 SHL DUP2 MSTORE PUSH1 0x4 ADD PUSH1 0x40 MLOAD DUP1 SWAP2 SUB SWAP1 REVERT JUMPDEST DUP2 SLOAD PUSH1 0x1 PUSH1 0x80 SHL SWAP1 DIV PUSH1 0x1 PUSH1 0x1 PUSH1 0x80 SHL SUB AND DUP1 ISZERO PUSH2 0xD5C JUMPI PUSH1 0x1 DUP5 DUP2 ADD DUP1 SLOAD DUP4 SWAP3 SWAP1 PUSH2 0xD37 SWAP1 DUP5 SWAP1 PUSH2 0x100 SWAP1 DIV PUSH1 0x1 PUSH1 0x1 PUSH1 0x80 SHL SUB AND PUSH2 0x26E8 JUMP JUMPDEST SWAP3 POP PUSH2 0x100 EXP DUP2 SLOAD DUP2 PUSH1 0x1 PUSH1 0x1 PUSH1 0x80 SHL SUB MUL NOT AND SWAP1 DUP4 PUSH1 0x1 PUSH1 0x1 PUSH1 0x80 SHL SUB AND MUL OR SWAP1 SSTORE POP JUMPDEST PUSH1 0x0 DUP1 DUP5 SSTORE PUSH1 0x1 DUP5 ADD DUP1 SLOAD PUSH1 0x1 PUSH1 0x1 PUSH1 0x80 SHL SUB NOT AND SWAP1 SSTORE PUSH1 0x2 DUP5 ADD SSTORE PUSH1 0x3 DUP4 ADD DUP1 SLOAD PUSH2 0xFFFF NOT AND PUSH2 0x100 OR SWAP1 SSTORE PUSH2 0xDBD PUSH1 0x1 PUSH1 0x1 PUSH1 0xA0 SHL SUB PUSH32 0x0 AND CALLER DUP5 PUSH2 0x1F6C JUMP JUMPDEST PUSH1 0x40 MLOAD DUP3 DUP2 MSTORE CALLER SWAP1 DUP7 SWAP1 PUSH32 0x782D17757EF22B6D49078E7415F30225D972D06EC6433E96EA382674493AF42 SWAP1 PUSH1 0x20 ADD PUSH1 0x40 MLOAD DUP1 SWAP2 SUB SWAP1 LOG3 POP POP POP POP PUSH2 0xC2A PUSH1 0x1 PUSH1 0x2 SSTORE JUMP JUMPDEST PUSH2 0xE0A PUSH2 0x1F44 JUMP JUMPDEST PUSH1 0x0 DUP7 DUP2 MSTORE PUSH1 0x4 PUSH1 0x20 MSTORE PUSH1 0x40 SWAP1 KECCAK256 PUSH1 0x1 DUP2 ADD SLOAD PUSH1 0xFF AND PUSH1 0x5 EQ PUSH2 0xE40 JUMPI PUSH1 0x40 MLOAD PUSH4 0x65E1A111 PUSH1 0xE1 SHL DUP2 MSTORE PUSH1 0x4 ADD PUSH1 0x40 MLOAD DUP1 SWAP2 SUB SWAP1 REVERT JUMPDEST PUSH1 0x0 DUP8 DUP2 MSTORE PUSH1 0x5 PUSH1 0x20 SWAP1 DUP2 MSTORE PUSH1 0x40 DUP1 DUP4 KECCAK256 CALLER DUP5 MSTORE SWAP1 SWAP2 MSTORE SWAP1 KECCAK256 PUSH1 0x3 DUP2 ADD SLOAD PUSH2 0x100 SWAP1 DIV PUSH1 0xFF AND ISZERO PUSH2 0xE84 JUMPI PUSH1 0x40 MLOAD PUSH4 0xC8D9EAB PUSH1 0xE3 SHL DUP2 MSTORE PUSH1 0x4 ADD PUSH1 0x40 MLOAD DUP1 SWAP2 SUB SWAP1 REVERT JUMPDEST PUSH1 0x0 ADDRESS CHAINID DUP11 CALLER DUP12 DUP12 DUP12 PUSH1 0x40 MLOAD PUSH1 0x20 ADD PUSH2 0xEA3 SWAP8 SWAP7 SWAP6 SWAP5 SWAP4 SWAP3 SWAP2 SWAP1 PUSH2 0x270F JUMP JUMPDEST PUSH1 0x40 MLOAD PUSH1 0x20 DUP2 DUP4 SUB SUB DUP2 MSTORE SWAP1 PUSH1 0x40 MSTORE DUP1 MLOAD SWAP1 PUSH1 0x20 ADD KECCAK256 SWAP1 POP PUSH2 0xEFC DUP6 DUP6 DUP1 DUP1 PUSH1 0x20 MUL PUSH1 0x20 ADD PUSH1 0x40 MLOAD SWAP1 DUP2 ADD PUSH1 0x40 MSTORE DUP1 SWAP4 SWAP3 SWAP2 SWAP1 DUP2 DUP2 MSTORE PUSH1 0x20 ADD DUP4 DUP4 PUSH1 0x20 MUL DUP1 DUP3 DUP5 CALLDATACOPY PUSH1 0x0 SWAP3 ADD SWAP2 SWAP1 SWAP2 MSTORE POP POP POP POP PUSH1 0x3 DUP6 ADD SLOAD DUP4 PUSH2 0x1FCB JUMP JUMPDEST PUSH2 0xF19 JUMPI PUSH1 0x40 MLOAD PUSH4 0x9BDE339 PUSH1 0xE0 SHL DUP2 MSTORE PUSH1 0x4 ADD PUSH1 0x40 MLOAD DUP1 SWAP2 SUB SWAP1 REVERT JUMPDEST PUSH1 0x1 DUP3 ADD SLOAD DUP7 SWAP1 PUSH1 0x1 PUSH1 0x1 PUSH1 0x80 SHL SUB AND DUP1 ISZERO DUP1 ISZERO PUSH2 0xF3B JUMPI POP PUSH2 0xF3B DUP6 PUSH2 0x1FE1 JUMP JUMPDEST ISZERO PUSH2 0x102D JUMPI PUSH1 0x0 PUSH2 0xF4D DUP6 DUP13 DUP12 PUSH2 0x202D JUMP JUMPDEST SWAP1 POP DUP1 ISZERO PUSH2 0x102B JUMPI PUSH1 0x1 PUSH1 0x1 PUSH1 0x80 SHL SUB DUP2 GT ISZERO PUSH2 0xF7D JUMPI PUSH1 0x40 MLOAD PUSH4 0xC56D46D3 PUSH1 0xE0 SHL DUP2 MSTORE PUSH1 0x4 ADD PUSH1 0x40 MLOAD DUP1 SWAP2 SUB SWAP1 REVERT JUMPDEST PUSH1 0x1 DUP6 ADD DUP1 SLOAD PUSH1 0x1 PUSH1 0x1 PUSH1 0x80 SHL SUB NOT AND PUSH1 0x1 PUSH1 0x1 PUSH1 0x80 SHL SUB DUP4 AND OR SWAP1 SSTORE SWAP1 POP DUP1 PUSH2 0xFF1 PUSH32 0x0 PUSH1 0x1 PUSH1 0x1 PUSH1 0xA0 SHL SUB AND PUSH32 0x0 DUP4 PUSH2 0x1F6C JUMP JUMPDEST PUSH1 0x40 MLOAD DUP2 DUP2 MSTORE CALLER SWAP1 DUP2 SWAP1 DUP15 SWAP1 PUSH32 0xF2D8B3E55FC163D23DC20F735EAFA12CAA3F0F65C229D1E0398493935755949D SWAP1 PUSH1 0x20 ADD PUSH1 0x40 MLOAD DUP1 SWAP2 SUB SWAP1 LOG4 JUMPDEST POP JUMPDEST DUP2 DUP2 GT ISZERO PUSH2 0x1038 JUMPI POP DUP1 JUMPDEST PUSH2 0x1042 DUP2 DUP4 PUSH2 0x275D JUMP JUMPDEST PUSH1 0x3 DUP6 ADD DUP1 SLOAD PUSH2 0xFF00 NOT AND PUSH2 0x100 OR SWAP1 SSTORE SWAP2 POP PUSH2 0x1089 PUSH1 0x1 PUSH1 0x1 PUSH1 0xA0 SHL SUB PUSH32 0x0 AND CALLER DUP5 PUSH2 0x1F6C JUMP JUMPDEST PUSH1 0x40 MLOAD DUP3 DUP2 MSTORE CALLER SWAP1 DUP13 SWAP1 PUSH32 0x4EC90E965519D92681267467F775ADA5BD214AA92C0DC93D90A5E880CE9ED026 SWAP1 PUSH1 0x20 ADD PUSH1 0x40 MLOAD DUP1 SWAP2 SUB SWAP1 LOG3 POP POP POP POP POP PUSH2 0x10CF PUSH1 0x1 PUSH1 0x2 SSTORE JUMP JUMPDEST POP POP POP POP POP POP JUMP JUMPDEST PUSH32 0x59A1C48E5837AD7A7F3DCEDCBE129BF3249EC4FBF651FD4F5E2600EAD39FE2F5 PUSH2 0x1101 DUP2 PUSH2 0x1DC6 JUMP JUMPDEST PUSH1 0x0 DUP3 DUP2 MSTORE PUSH1 0x4 PUSH1 0x20 DUP2 SWAP1 MSTORE PUSH1 0x40 SWAP1 SWAP2 KECCAK256 PUSH1 0x1 DUP2 ADD SLOAD SWAP1 SWAP2 PUSH1 0xFF SWAP1 SWAP2 AND EQ PUSH2 0x113C JUMPI PUSH1 0x40 MLOAD PUSH4 0xC50C9A7F PUSH1 0xE0 SHL DUP2 MSTORE PUSH1 0x4 ADD PUSH1 0x40 MLOAD DUP1 SWAP2 SUB SWAP1 REVERT JUMPDEST PUSH1 0x1 DUP2 ADD DUP1 SLOAD PUSH1 0xFF NOT AND PUSH1 0x3 SWAP1 DUP2 OR SWAP1 SWAP2 SSTORE DUP2 SLOAD PUSH1 0x1 PUSH1 0x1 PUSH1 0xC0 SHL SUB AND DUP3 SSTORE PUSH1 0x2 DUP3 ADD DUP1 SLOAD PUSH1 0x1 PUSH1 0x1 PUSH1 0x80 SHL SUB NOT AND SWAP1 SSTORE PUSH1 0x0 SWAP1 DUP3 ADD DUP2 SWAP1 SSTORE PUSH1 0x4 DUP3 ADD DUP2 SWAP1 SSTORE PUSH1 0x40 MLOAD DUP5 SWAP2 PUSH32 0x262BB819C866F92FBCE469B11AFF93B1CC683ADABA550CB35045CF48671D6CFA SWAP2 LOG2 POP POP POP JUMP JUMPDEST PUSH2 0x11B1 PUSH2 0x2074 JUMP JUMPDEST PUSH2 0x11B9 PUSH2 0x1F44 JUMP JUMPDEST PUSH1 0x0 DUP4 DUP2 MSTORE PUSH1 0x4 PUSH1 0x20 MSTORE PUSH1 0x40 SWAP1 KECCAK256 PUSH1 0x1 DUP1 DUP3 ADD SLOAD PUSH1 0xFF AND EQ PUSH2 0x11EE JUMPI PUSH1 0x40 MLOAD PUSH4 0x63E0F9CF PUSH1 0xE1 SHL DUP2 MSTORE PUSH1 0x4 ADD PUSH1 0x40 MLOAD DUP1 SWAP2 SUB SWAP1 REVERT JUMPDEST PUSH1 0x3 SLOAD PUSH1 0xFF AND ISZERO DUP1 ISZERO PUSH2 0x1212 JUMPI POP DUP1 SLOAD PUSH1 0x1 PUSH1 0x40 SHL SWAP1 DIV PUSH1 0x1 PUSH1 0x1 PUSH1 0x40 SHL SUB AND TIMESTAMP LT ISZERO JUMPDEST ISZERO PUSH2 0x1230 JUMPI PUSH1 0x40 MLOAD PUSH4 0x70FE87B1 PUSH1 0xE0 SHL DUP2 MSTORE PUSH1 0x4 ADD PUSH1 0x40 MLOAD DUP1 SWAP2 SUB SWAP1 REVERT JUMPDEST DUP3 PUSH2 0x124D JUMPI PUSH1 0x40 MLOAD PUSH3 0x57C037 PUSH1 0xE5 SHL DUP2 MSTORE PUSH1 0x4 ADD PUSH1 0x40 MLOAD DUP1 SWAP2 SUB SWAP1 REVERT JUMPDEST DUP2 PUSH1 0x0 SUB PUSH2 0x126E JUMPI PUSH1 0x40 MLOAD PUSH4 0x5972996F PUSH1 0xE1 SHL DUP2 MSTORE PUSH1 0x4 ADD PUSH1 0x40 MLOAD DUP1 SWAP2 SUB SWAP1 REVERT JUMPDEST PUSH32 0x0 DUP3 LT ISZERO PUSH2 0x12AF JUMPI PUSH1 0x40 MLOAD PUSH4 0x25BB2395 PUSH1 0xE2 SHL DUP2 MSTORE PUSH1 0x4 ADD PUSH1 0x40 MLOAD DUP1 SWAP2 SUB SWAP1 REVERT JUMPDEST PUSH1 0x0 DUP5 DUP2 MSTORE PUSH1 0x5 PUSH1 0x20 SWAP1 DUP2 MSTORE PUSH1 0x40 DUP1 DUP4 KECCAK256 CALLER DUP5 MSTORE SWAP1 SWAP2 MSTORE SWAP1 KECCAK256 PUSH1 0x3 DUP2 ADD SLOAD PUSH2 0x100 SWAP1 DIV PUSH1 0xFF AND ISZERO PUSH2 0x12F3 JUMPI PUSH1 0x40 MLOAD PUSH4 0xC8D9EAB PUSH1 0xE3 SHL DUP2 MSTORE PUSH1 0x4 ADD PUSH1 0x40 MLOAD DUP1 SWAP2 SUB SWAP1 REVERT JUMPDEST DUP1 SLOAD PUSH1 0x0 SWAP1 PUSH2 0x1314 SWAP1 PUSH1 0x1 PUSH1 0x1 PUSH1 0x80 SHL SUB PUSH1 0x1 PUSH1 0x80 SHL DUP3 DIV DUP2 AND SWAP2 AND PUSH2 0x26D5 JUMP JUMPDEST SWAP1 POP DUP1 DUP5 GT ISZERO PUSH2 0x1364 JUMPI PUSH2 0x135F CALLER ADDRESS PUSH2 0x132D DUP5 DUP9 PUSH2 0x275D JUMP JUMPDEST PUSH1 0x1 PUSH1 0x1 PUSH1 0xA0 SHL SUB PUSH32 0x0 AND SWAP3 SWAP2 SWAP1 PUSH2 0x2098 JUMP JUMPDEST PUSH2 0x13AB JUMP JUMPDEST DUP1 DUP5 LT ISZERO PUSH2 0x13AB JUMPI PUSH2 0x13AB CALLER PUSH2 0x137A DUP7 DUP5 PUSH2 0x275D JUMP JUMPDEST PUSH1 0x1 PUSH1 0x1 PUSH1 0xA0 SHL SUB PUSH32 0x0 AND SWAP2 SWAP1 PUSH2 0x1F6C JUMP JUMPDEST PUSH1 0x0 PUSH2 0x2710 PUSH2 0x13DE PUSH2 0xFFFF PUSH32 0x0 AND DUP8 PUSH2 0x2770 JUMP JUMPDEST PUSH2 0x13E8 SWAP2 SWAP1 PUSH2 0x2787 JUMP JUMPDEST SWAP1 POP PUSH1 0x0 PUSH2 0x13F6 DUP3 DUP8 PUSH2 0x275D JUMP JUMPDEST SWAP1 POP PUSH1 0x1 PUSH1 0x1 PUSH1 0x80 SHL SUB DUP3 GT DUP1 PUSH2 0x1413 JUMPI POP PUSH1 0x1 PUSH1 0x1 PUSH1 0x80 SHL SUB DUP2 GT JUMPDEST ISZERO PUSH2 0x1431 JUMPI PUSH1 0x40 MLOAD PUSH4 0xC56D46D3 PUSH1 0xE0 SHL DUP2 MSTORE PUSH1 0x4 ADD PUSH1 0x40 MLOAD DUP1 SWAP2 SUB SWAP1 REVERT JUMPDEST DUP4 SLOAD PUSH1 0x1 PUSH1 0x80 SHL SWAP1 DIV PUSH1 0x1 PUSH1 0x1 PUSH1 0x80 SHL SUB AND DUP1 DUP3 GT ISZERO PUSH2 0x14AC JUMPI PUSH2 0x145E PUSH1 0x1 PUSH1 0x1 PUSH1 0x80 SHL SUB DUP3 AND DUP4 PUSH2 0x275D JUMP JUMPDEST DUP7 PUSH1 0x1 ADD PUSH1 0x1 DUP3 DUP3 DUP3 SWAP1 SLOAD SWAP1 PUSH2 0x100 EXP SWAP1 DIV PUSH1 0x1 PUSH1 0x1 PUSH1 0x80 SHL SUB AND PUSH2 0x1483 SWAP2 SWAP1 PUSH2 0x27A9 JUMP JUMPDEST SWAP3 POP PUSH2 0x100 EXP DUP2 SLOAD DUP2 PUSH1 0x1 PUSH1 0x1 PUSH1 0x80 SHL SUB MUL NOT AND SWAP1 DUP4 PUSH1 0x1 PUSH1 0x1 PUSH1 0x80 SHL SUB AND MUL OR SWAP1 SSTORE POP PUSH2 0x151A JUMP JUMPDEST DUP1 PUSH1 0x1 PUSH1 0x1 PUSH1 0x80 SHL SUB AND DUP3 LT ISZERO PUSH2 0x151A JUMPI PUSH2 0x14D0 DUP3 PUSH1 0x1 PUSH1 0x1 PUSH1 0x80 SHL SUB DUP4 AND PUSH2 0x275D JUMP JUMPDEST DUP7 PUSH1 0x1 ADD PUSH1 0x1 DUP3 DUP3 DUP3 SWAP1 SLOAD SWAP1 PUSH2 0x100 EXP SWAP1 DIV PUSH1 0x1 PUSH1 0x1 PUSH1 0x80 SHL SUB AND PUSH2 0x14F5 SWAP2 SWAP1 PUSH2 0x26E8 JUMP JUMPDEST SWAP3 POP PUSH2 0x100 EXP DUP2 SLOAD DUP2 PUSH1 0x1 PUSH1 0x1 PUSH1 0x80 SHL SUB MUL NOT AND SWAP1 DUP4 PUSH1 0x1 PUSH1 0x1 PUSH1 0x80 SHL SUB AND MUL OR SWAP1 SSTORE POP JUMPDEST PUSH1 0x1 PUSH1 0x1 PUSH1 0x80 SHL SUB DUP3 DUP2 AND PUSH1 0x1 PUSH1 0x80 SHL MUL SWAP1 DUP5 AND OR DUP6 SSTORE PUSH1 0x1 DUP6 ADD DUP1 SLOAD PUSH1 0x1 PUSH1 0x1 PUSH1 0x80 SHL SUB NOT AND SWAP1 SSTORE PUSH1 0x2 DUP6 ADD DUP9 SWAP1 SSTORE PUSH1 0x3 DUP6 ADD DUP1 SLOAD PUSH2 0xFFFF NOT AND SWAP1 SSTORE PUSH1 0x0 DUP5 SWAP1 SUB PUSH2 0x15A2 JUMPI PUSH1 0x40 DUP1 MLOAD DUP10 DUP2 MSTORE PUSH1 0x20 DUP2 ADD DUP10 SWAP1 MSTORE CALLER SWAP2 DUP12 SWAP2 PUSH32 0x80911C202F290B865D2F04D188438939370585FE8970854F13309ADAEBF28A8A SWAP2 ADD PUSH1 0x40 MLOAD DUP1 SWAP2 SUB SWAP1 LOG3 PUSH2 0x15E0 JUMP JUMPDEST PUSH1 0x40 DUP1 MLOAD DUP10 DUP2 MSTORE PUSH1 0x20 DUP2 ADD DUP10 SWAP1 MSTORE CALLER SWAP2 DUP12 SWAP2 PUSH32 0x645958708F60EA0B47FA2C9C64BAE144D7111035C5F9BB13AC45022C6F018651 SWAP2 ADD PUSH1 0x40 MLOAD DUP1 SWAP2 SUB SWAP1 LOG3 JUMPDEST POP POP POP POP POP POP PUSH2 0xAB8 PUSH1 0x1 PUSH1 0x2 SSTORE JUMP JUMPDEST PUSH2 0x15F8 PUSH2 0x1F44 JUMP JUMPDEST PUSH1 0x0 DUP8 DUP2 MSTORE PUSH1 0x4 PUSH1 0x20 MSTORE PUSH1 0x40 SWAP1 KECCAK256 PUSH1 0x1 DUP2 ADD SLOAD PUSH1 0xFF AND PUSH1 0x5 EQ PUSH2 0x162E JUMPI PUSH1 0x40 MLOAD PUSH4 0x65E1A111 PUSH1 0xE1 SHL DUP2 MSTORE PUSH1 0x4 ADD PUSH1 0x40 MLOAD DUP1 SWAP2 SUB SWAP1 REVERT JUMPDEST PUSH2 0x1637 DUP2 PUSH2 0x1FE1 JUMP JUMPDEST PUSH2 0x1654 JUMPI PUSH1 0x40 MLOAD PUSH4 0x2718EAC7 PUSH1 0xE0 SHL DUP2 MSTORE PUSH1 0x4 ADD PUSH1 0x40 MLOAD DUP1 SWAP2 SUB SWAP1 REVERT JUMPDEST PUSH1 0x0 DUP9 DUP2 MSTORE PUSH1 0x5 PUSH1 0x20 SWAP1 DUP2 MSTORE PUSH1 0x40 DUP1 DUP4 KECCAK256 PUSH1 0x1 PUSH1 0x1 PUSH1 0xA0 SHL SUB DUP12 AND DUP5 MSTORE SWAP1 SWAP2 MSTORE SWAP1 KECCAK256 PUSH1 0x3 DUP2 ADD SLOAD PUSH2 0x100 SWAP1 DIV PUSH1 0xFF AND ISZERO PUSH2 0x16A1 JUMPI PUSH1 0x40 MLOAD PUSH4 0xC8D9EAB PUSH1 0xE3 SHL DUP2 MSTORE PUSH1 0x4 ADD PUSH1 0x40 MLOAD DUP1 SWAP2 SUB SWAP1 REVERT JUMPDEST PUSH1 0x1 DUP2 ADD SLOAD PUSH1 0x1 PUSH1 0x1 PUSH1 0x80 SHL SUB AND ISZERO PUSH2 0x16CD JUMPI PUSH1 0x40 MLOAD PUSH4 0x6CAABF8F PUSH1 0xE1 SHL DUP2 MSTORE PUSH1 0x4 ADD PUSH1 0x40 MLOAD DUP1 SWAP2 SUB SWAP1 REVERT JUMPDEST PUSH1 0x0 ADDRESS CHAINID DUP12 DUP12 DUP12 DUP12 DUP12 PUSH1 0x40 MLOAD PUSH1 0x20 ADD PUSH2 0x16EC SWAP8 SWAP7 SWAP6 SWAP5 SWAP4 SWAP3 SWAP2 SWAP1 PUSH2 0x270F JUMP JUMPDEST PUSH1 0x40 MLOAD PUSH1 0x20 DUP2 DUP4 SUB SUB DUP2 MSTORE SWAP1 PUSH1 0x40 MSTORE DUP1 MLOAD SWAP1 PUSH1 0x20 ADD KECCAK256 SWAP1 POP PUSH2 0x1745 DUP6 DUP6 DUP1 DUP1 PUSH1 0x20 MUL PUSH1 0x20 ADD PUSH1 0x40 MLOAD SWAP1 DUP2 ADD PUSH1 0x40 MSTORE DUP1 SWAP4 SWAP3 SWAP2 SWAP1 DUP2 DUP2 MSTORE PUSH1 0x20 ADD DUP4 DUP4 PUSH1 0x20 MUL DUP1 DUP3 DUP5 CALLDATACOPY PUSH1 0x0 SWAP3 ADD SWAP2 SWAP1 SWAP2 MSTORE POP POP POP POP PUSH1 0x3 DUP6 ADD SLOAD DUP4 PUSH2 0x1FCB JUMP JUMPDEST PUSH2 0x1762 JUMPI PUSH1 0x40 MLOAD PUSH4 0x9BDE339 PUSH1 0xE0 SHL DUP2 MSTORE PUSH1 0x4 ADD PUSH1 0x40 MLOAD DUP1 SWAP2 SUB SWAP1 REVERT JUMPDEST PUSH1 0x0 PUSH2 0x176F DUP4 DUP11 DUP10 PUSH2 0x202D JUMP JUMPDEST SWAP1 POP DUP1 PUSH1 0x0 SUB PUSH2 0x1792 JUMPI PUSH1 0x40 MLOAD PUSH4 0x1557F709 PUSH1 0xE0 SHL DUP2 MSTORE PUSH1 0x4 ADD PUSH1 0x40 MLOAD DUP1 SWAP2 SUB SWAP1 REVERT JUMPDEST PUSH1 0x1 PUSH1 0x1 PUSH1 0x80 SHL SUB DUP2 GT ISZERO PUSH2 0x17BA JUMPI PUSH1 0x40 MLOAD PUSH4 0xC56D46D3 PUSH1 0xE0 SHL DUP2 MSTORE PUSH1 0x4 ADD PUSH1 0x40 MLOAD DUP1 SWAP2 SUB SWAP1 REVERT JUMPDEST PUSH1 0x1 DUP4 ADD DUP1 SLOAD PUSH1 0x1 PUSH1 0x1 PUSH1 0x80 SHL SUB NOT AND PUSH1 0x1 PUSH1 0x1 PUSH1 0x80 SHL SUB DUP4 AND OR SWAP1 SSTORE PUSH2 0x182B PUSH32 0x0 PUSH1 0x1 PUSH1 0x1 PUSH1 0xA0 SHL SUB AND PUSH32 0x0 DUP4 PUSH2 0x1F6C JUMP JUMPDEST CALLER PUSH1 0x1 PUSH1 0x1 PUSH1 0xA0 SHL SUB AND DUP11 PUSH1 0x1 PUSH1 0x1 PUSH1 0xA0 SHL SUB AND DUP13 PUSH32 0xF2D8B3E55FC163D23DC20F735EAFA12CAA3F0F65C229D1E0398493935755949D DUP5 PUSH1 0x40 MLOAD PUSH2 0x1871 SWAP2 DUP2 MSTORE PUSH1 0x20 ADD SWAP1 JUMP JUMPDEST PUSH1 0x40 MLOAD DUP1 SWAP2 SUB SWAP1 LOG4 POP POP POP POP PUSH2 0x1887 PUSH1 0x1 PUSH1 0x2 SSTORE JUMP JUMPDEST POP POP POP POP POP POP POP JUMP JUMPDEST PUSH32 0x59A1C48E5837AD7A7F3DCEDCBE129BF3249EC4FBF651FD4F5E2600EAD39FE2F5 PUSH2 0x18BA DUP2 PUSH2 0x1DC6 JUMP JUMPDEST PUSH1 0x0 DUP3 DUP2 MSTORE PUSH1 0x4 PUSH1 0x20 DUP2 SWAP1 MSTORE PUSH1 0x40 SWAP1 SWAP2 KECCAK256 PUSH1 0x1 DUP2 ADD SLOAD SWAP1 SWAP2 PUSH1 0xFF SWAP1 SWAP2 AND EQ PUSH2 0x18F5 JUMPI PUSH1 0x40 MLOAD PUSH4 0xC50C9A7F PUSH1 0xE0 SHL DUP2 MSTORE PUSH1 0x4 ADD PUSH1 0x40 MLOAD DUP1 SWAP2 SUB SWAP1 REVERT JUMPDEST PUSH1 0x1 DUP2 ADD DUP1 SLOAD PUSH1 0xFF NOT AND PUSH1 0x5 OR SWAP1 SSTORE PUSH1 0x2 DUP2 ADD SLOAD PUSH1 0x1 PUSH1 0x1 PUSH1 0x80 SHL SUB AND DUP1 ISZERO PUSH2 0x19D1 JUMPI PUSH2 0x196C PUSH1 0x1 PUSH1 0x1 PUSH1 0xA0 SHL SUB PUSH32 0x0 AND PUSH32 0x0 DUP4 PUSH2 0x1F6C JUMP JUMPDEST PUSH32 0x0 PUSH1 0x1 PUSH1 0x1 PUSH1 0xA0 SHL SUB AND DUP5 PUSH32 0xE19F21371647F79BB7C3F1E363266315B211FCCA3836E7A71425CC0C4AB6A8E DUP4 PUSH1 0x40 MLOAD PUSH2 0x19C8 SWAP2 DUP2 MSTORE PUSH1 0x20 ADD SWAP1 JUMP JUMPDEST PUSH1 0x40 MLOAD DUP1 SWAP2 SUB SWAP1 LOG3 JUMPDEST DUP4 PUSH32 0xE3AE6D591C9A33E364EC2F64A44C0F22B39C7408F4C24B7B6A330CDFF31E63A5 DUP4 PUSH1 0x3 ADD SLOAD DUP5 PUSH1 0x4 ADD SLOAD PUSH1 0x40 MLOAD PUSH2 0x1A14 SWAP3 SWAP2 SWAP1 SWAP2 DUP3 MSTORE PUSH1 0x20 DUP3 ADD MSTORE PUSH1 0x40 ADD SWAP1 JUMP JUMPDEST PUSH1 0x40 MLOAD DUP1 SWAP2 SUB SWAP1 LOG2 POP POP POP POP JUMP JUMPDEST PUSH32 0x65D7A28E3265B37A6474929F336521B332C1681B933F6CB9F3376673440D862A PUSH2 0x1A4C DUP2 PUSH2 0x1DC6 JUMP JUMPDEST PUSH2 0xC2A PUSH2 0x20D1 JUMP JUMPDEST PUSH2 0x1A5C PUSH2 0x2074 JUMP JUMPDEST PUSH1 0x0 DUP3 DUP2 MSTORE PUSH1 0x4 PUSH1 0x20 MSTORE PUSH1 0x40 SWAP1 KECCAK256 PUSH1 0x1 DUP2 ADD SLOAD PUSH1 0xFF AND PUSH1 0x3 EQ PUSH2 0x1A92 JUMPI PUSH1 0x40 MLOAD PUSH4 0x3E6881C5 PUSH1 0xE0 SHL DUP2 MSTORE PUSH1 0x4 ADD PUSH1 0x40 MLOAD DUP1 SWAP2 SUB SWAP1 REVERT JUMPDEST PUSH1 0x3 SLOAD PUSH1 0xFF AND ISZERO DUP1 ISZERO PUSH2 0x1AB6 JUMPI POP DUP1 SLOAD PUSH1 0x1 PUSH1 0x80 SHL SWAP1 DIV PUSH1 0x1 PUSH1 0x1 PUSH1 0x40 SHL SUB AND TIMESTAMP LT ISZERO JUMPDEST ISZERO PUSH2 0x1AD4 JUMPI PUSH1 0x40 MLOAD PUSH4 0xCAE73D45 PUSH1 0xE0 SHL DUP2 MSTORE PUSH1 0x4 ADD PUSH1 0x40 MLOAD DUP1 SWAP2 SUB SWAP1 REVERT JUMPDEST PUSH1 0x0 DUP4 DUP2 MSTORE PUSH1 0x5 PUSH1 0x20 SWAP1 DUP2 MSTORE PUSH1 0x40 DUP1 DUP4 KECCAK256 CALLER DUP5 MSTORE SWAP1 SWAP2 MSTORE SWAP1 KECCAK256 PUSH1 0x2 DUP2 ADD SLOAD PUSH2 0x1B0F JUMPI PUSH1 0x40 MLOAD PUSH4 0x5E096DAF PUSH1 0xE0 SHL DUP2 MSTORE PUSH1 0x4 ADD PUSH1 0x40 MLOAD DUP1 SWAP2 SUB SWAP1 REVERT JUMPDEST PUSH1 0x3 DUP2 ADD SLOAD PUSH1 0xA PUSH1 0xFF SWAP1 SWAP2 AND LT PUSH2 0x1B39 JUMPI PUSH1 0x40 MLOAD PUSH4 0xA3869AB7 PUSH1 0xE0 SHL DUP2 MSTORE PUSH1 0x4 ADD PUSH1 0x40 MLOAD DUP1 SWAP2 SUB SWAP1 REVERT JUMPDEST DUP3 PUSH2 0x1B56 JUMPI PUSH1 0x40 MLOAD PUSH3 0x57C037 PUSH1 0xE5 SHL DUP2 MSTORE PUSH1 0x4 ADD PUSH1 0x40 MLOAD DUP1 SWAP2 SUB SWAP1 REVERT JUMPDEST PUSH1 0x2 DUP2 ADD DUP4 SWAP1 SSTORE PUSH1 0x3 DUP2 ADD DUP1 SLOAD PUSH1 0xFF DUP1 DUP3 AND PUSH1 0x1 ADD AND PUSH1 0xFF NOT SWAP1 SWAP2 AND DUP2 OR SWAP1 SWAP2 SSTORE PUSH1 0x40 DUP1 MLOAD DUP6 DUP2 MSTORE PUSH1 0x20 DUP2 ADD SWAP3 SWAP1 SWAP3 MSTORE CALLER SWAP2 DUP7 SWAP2 PUSH32 0xF13A4DF72601C50DAAFF7EBB4317C336455AC45E70CBA3146DB7FFD8104CB17C SWAP2 ADD PUSH1 0x40 MLOAD DUP1 SWAP2 SUB SWAP1 LOG3 POP POP POP POP JUMP JUMPDEST PUSH1 0x0 SWAP2 DUP3 MSTORE PUSH1 0x20 DUP3 DUP2 MSTORE PUSH1 0x40 DUP1 DUP5 KECCAK256 PUSH1 0x1 PUSH1 0x1 PUSH1 0xA0 SHL SUB SWAP4 SWAP1 SWAP4 AND DUP5 MSTORE SWAP2 SWAP1 MSTORE SWAP1 KECCAK256 SLOAD PUSH1 0xFF AND SWAP1 JUMP JUMPDEST PUSH1 0x0 DUP2 DUP2 MSTORE PUSH1 0x4 PUSH1 0x20 MSTORE PUSH1 0x40 DUP2 KECCAK256 PUSH1 0x1 DUP2 ADD SLOAD PUSH1 0xFF AND PUSH1 0x5 EQ ISZERO DUP1 PUSH2 0x1C18 JUMPI POP DUP1 SLOAD PUSH1 0x1 PUSH1 0xC0 SHL SWAP1 DIV PUSH1 0x1 PUSH1 0x1 PUSH1 0x40 SHL SUB AND ISZERO JUMPDEST ISZERO PUSH2 0x1C26 JUMPI POP PUSH1 0x0 SWAP3 SWAP2 POP POP JUMP JUMPDEST DUP1 SLOAD PUSH2 0x1C46 SWAP1 PUSH3 0xED4E00 SWAP1 PUSH1 0x1 PUSH1 0xC0 SHL SWAP1 DIV PUSH1 0x1 PUSH1 0x1 PUSH1 0x40 SHL SUB AND PUSH2 0x26D5 JUMP JUMPDEST SWAP4 SWAP3 POP POP POP JUMP JUMPDEST PUSH1 0x0 DUP1 MLOAD PUSH1 0x20 PUSH2 0x282C DUP4 CODECOPY DUP2 MLOAD SWAP2 MSTORE PUSH2 0x1C65 DUP2 PUSH2 0x1DC6 JUMP JUMPDEST PUSH1 0x0 DUP6 DUP2 MSTORE PUSH1 0x4 PUSH1 0x20 MSTORE PUSH1 0x40 SWAP1 KECCAK256 PUSH1 0x1 DUP2 ADD SLOAD PUSH1 0xFF AND PUSH1 0x3 EQ PUSH2 0x1C9B JUMPI PUSH1 0x40 MLOAD PUSH4 0x3E6881C5 PUSH1 0xE0 SHL DUP2 MSTORE PUSH1 0x4 ADD PUSH1 0x40 MLOAD DUP1 SWAP2 SUB SWAP1 REVERT JUMPDEST DUP5 PUSH2 0x1CB9 JUMPI PUSH1 0x40 MLOAD PUSH4 0x9DD854D3 PUSH1 0xE0 SHL DUP2 MSTORE PUSH1 0x4 ADD PUSH1 0x40 MLOAD DUP1 SWAP2 SUB SWAP1 REVERT JUMPDEST PUSH1 0x1 PUSH1 0x1 PUSH1 0x80 SHL SUB DUP4 GT ISZERO PUSH2 0x1CE1 JUMPI PUSH1 0x40 MLOAD PUSH4 0xC56D46D3 PUSH1 0xE0 SHL DUP2 MSTORE PUSH1 0x4 ADD PUSH1 0x40 MLOAD DUP1 SWAP2 SUB SWAP1 REVERT JUMPDEST PUSH1 0x1 DUP2 ADD SLOAD PUSH2 0x100 SWAP1 DIV PUSH1 0x1 PUSH1 0x1 PUSH1 0x80 SHL SUB AND DUP4 GT ISZERO PUSH2 0x1D14 JUMPI PUSH1 0x40 MLOAD PUSH4 0x58D620B3 PUSH1 0xE0 SHL DUP2 MSTORE PUSH1 0x4 ADD PUSH1 0x40 MLOAD DUP1 SWAP2 SUB SWAP1 REVERT JUMPDEST PUSH2 0x10CF DUP2 DUP8 DUP8 DUP8 DUP8 PUSH2 0x210C JUMP JUMPDEST PUSH1 0x0 DUP3 DUP2 MSTORE PUSH1 0x20 DUP2 SWAP1 MSTORE PUSH1 0x40 SWAP1 KECCAK256 PUSH1 0x1 ADD SLOAD PUSH2 0x1D3C DUP2 PUSH2 0x1DC6 JUMP JUMPDEST PUSH2 0xA06 DUP4 DUP4 PUSH2 0x1E62 JUMP JUMPDEST PUSH1 0x0 DUP1 MLOAD PUSH1 0x20 PUSH2 0x282C DUP4 CODECOPY DUP2 MLOAD SWAP2 MSTORE PUSH2 0x1D5E DUP2 PUSH2 0x1DC6 JUMP JUMPDEST PUSH1 0x0 DUP6 DUP2 MSTORE PUSH1 0x4 PUSH1 0x20 MSTORE PUSH1 0x40 SWAP1 KECCAK256 PUSH1 0x1 DUP2 ADD SLOAD PUSH1 0xFF AND PUSH1 0x3 EQ PUSH2 0x1D94 JUMPI PUSH1 0x40 MLOAD PUSH4 0x3E6881C5 PUSH1 0xE0 SHL DUP2 MSTORE PUSH1 0x4 ADD PUSH1 0x40 MLOAD DUP1 SWAP2 SUB SWAP1 REVERT JUMPDEST DUP1 SLOAD PUSH1 0x1 PUSH1 0x80 SHL SWAP1 DIV PUSH1 0x1 PUSH1 0x1 PUSH1 0x40 SHL SUB AND TIMESTAMP LT ISZERO PUSH2 0x1C9B JUMPI PUSH1 0x40 MLOAD PUSH4 0x7CD705B PUSH1 0xE4 SHL DUP2 MSTORE PUSH1 0x4 ADD PUSH1 0x40 MLOAD DUP1 SWAP2 SUB SWAP1 REVERT JUMPDEST PUSH2 0xC2A DUP2 CALLER PUSH2 0x21B0 JUMP JUMPDEST PUSH1 0x0 PUSH2 0x1DDC DUP4 DUP4 PUSH2 0x1BBB JUMP JUMPDEST PUSH2 0x1E5A JUMPI PUSH1 0x0 DUP4 DUP2 MSTORE PUSH1 0x20 DUP2 DUP2 MSTORE PUSH1 0x40 DUP1 DUP4 KECCAK256 PUSH1 0x1 PUSH1 0x1 PUSH1 0xA0 SHL SUB DUP7 AND DUP5 MSTORE SWAP1 SWAP2 MSTORE SWAP1 KECCAK256 DUP1 SLOAD PUSH1 0xFF NOT AND PUSH1 0x1 OR SWAP1 SSTORE PUSH2 0x1E12 CALLER SWAP1 JUMP JUMPDEST PUSH1 0x1 PUSH1 0x1 PUSH1 0xA0 SHL SUB AND DUP3 PUSH1 0x1 PUSH1 0x1 PUSH1 0xA0 SHL SUB AND DUP5 PUSH32 0x2F8788117E7EFF1D82E926EC794901D17C78024A50270940304540A733656F0D PUSH1 0x40 MLOAD PUSH1 0x40 MLOAD DUP1 SWAP2 SUB SWAP1 LOG4 POP PUSH1 0x1 PUSH2 0x78B JUMP JUMPDEST POP PUSH1 0x0 PUSH2 0x78B JUMP JUMPDEST PUSH1 0x0 PUSH2 0x1E6E DUP4 DUP4 PUSH2 0x1BBB JUMP JUMPDEST ISZERO PUSH2 0x1E5A JUMPI PUSH1 0x0 DUP4 DUP2 MSTORE PUSH1 0x20 DUP2 DUP2 MSTORE PUSH1 0x40 DUP1 DUP4 KECCAK256 PUSH1 0x1 PUSH1 0x1 PUSH1 0xA0 SHL SUB DUP7 AND DUP1 DUP6 MSTORE SWAP3 MSTORE DUP1 DUP4 KECCAK256 DUP1 SLOAD PUSH1 0xFF NOT AND SWAP1 SSTORE MLOAD CALLER SWAP3 DUP7 SWAP2 PUSH32 0xF6391F5C32D9C69D2A47EA670B442974B53935D1EDC7FD64EB21E047A839171B SWAP2 SWAP1 LOG4 POP PUSH1 0x1 PUSH2 0x78B JUMP JUMPDEST PUSH2 0x1ED5 PUSH2 0x1F1F JUMP JUMPDEST PUSH1 0x1 DUP1 SLOAD PUSH1 0xFF NOT AND SWAP1 SSTORE PUSH32 0x5DB9EE0A495BF2E6FF9C91A7834C1BA4FDD244A5E8AA4E537BD38AEAE4B073AA CALLER JUMPDEST PUSH1 0x40 MLOAD PUSH1 0x1 PUSH1 0x1 PUSH1 0xA0 SHL SUB SWAP1 SWAP2 AND DUP2 MSTORE PUSH1 0x20 ADD PUSH1 0x40 MLOAD DUP1 SWAP2 SUB SWAP1 LOG1 JUMP JUMPDEST PUSH1 0x1 SLOAD PUSH1 0xFF AND PUSH2 0x1F42 JUMPI PUSH1 0x40 MLOAD PUSH4 0x8DFC202B PUSH1 0xE0 SHL DUP2 MSTORE PUSH1 0x4 ADD PUSH1 0x40 MLOAD DUP1 SWAP2 SUB SWAP1 REVERT JUMPDEST JUMP JUMPDEST PUSH1 0x2 DUP1 SLOAD SUB PUSH2 0x1F66 JUMPI PUSH1 0x40 MLOAD PUSH4 0x3EE5AEB5 PUSH1 0xE0 SHL DUP2 MSTORE PUSH1 0x4 ADD PUSH1 0x40 MLOAD DUP1 SWAP2 SUB SWAP1 REVERT JUMPDEST PUSH1 0x2 DUP1 SSTORE JUMP JUMPDEST PUSH1 0x40 MLOAD PUSH1 0x1 PUSH1 0x1 PUSH1 0xA0 SHL SUB DUP4 DUP2 AND PUSH1 0x24 DUP4 ADD MSTORE PUSH1 0x44 DUP3 ADD DUP4 SWAP1 MSTORE PUSH2 0xAB8 SWAP2 DUP6 SWAP2 DUP3 AND SWAP1 PUSH4 0xA9059CBB SWAP1 PUSH1 0x64 ADD JUMPDEST PUSH1 0x40 MLOAD PUSH1 0x20 DUP2 DUP4 SUB SUB DUP2 MSTORE SWAP1 PUSH1 0x40 MSTORE SWAP2 POP PUSH1 0xE0 SHL PUSH1 0x20 DUP3 ADD DUP1 MLOAD PUSH1 0x1 PUSH1 0x1 PUSH1 0xE0 SHL SUB DUP4 DUP2 DUP4 AND OR DUP4 MSTORE POP POP POP POP PUSH2 0x21F2 JUMP JUMPDEST PUSH1 0x0 DUP3 PUSH2 0x1FD8 DUP6 DUP5 PUSH2 0x2255 JUMP JUMPDEST EQ SWAP5 SWAP4 POP POP POP POP JUMP JUMPDEST DUP1 SLOAD PUSH1 0x0 SWAP1 PUSH1 0x1 PUSH1 0xC0 SHL SWAP1 DIV PUSH1 0x1 PUSH1 0x1 PUSH1 0x40 SHL SUB AND DUP2 SUB PUSH2 0x2004 JUMPI POP PUSH1 0x0 SWAP2 SWAP1 POP JUMP JUMPDEST DUP2 SLOAD PUSH2 0x2024 SWAP1 PUSH3 0xED4E00 SWAP1 PUSH1 0x1 PUSH1 0xC0 SHL SWAP1 DIV PUSH1 0x1 PUSH1 0x1 PUSH1 0x40 SHL SUB AND PUSH2 0x26D5 JUMP JUMPDEST TIMESTAMP LT ISZERO SWAP3 SWAP2 POP POP JUMP JUMPDEST DUP3 SLOAD PUSH1 0x0 SWAP1 DUP2 SWAP1 PUSH2 0x204E SWAP1 PUSH1 0x1 PUSH1 0x80 SHL SWAP1 DIV PUSH1 0x1 PUSH1 0x1 PUSH1 0x80 SHL SUB AND DUP6 PUSH2 0x26D5 JUMP JUMPDEST SWAP1 POP DUP1 DUP4 GT PUSH2 0x2061 JUMPI PUSH1 0x0 SWAP2 POP POP PUSH2 0x1C46 JUMP JUMPDEST PUSH2 0x206B DUP2 DUP5 PUSH2 0x275D JUMP JUMPDEST SWAP6 SWAP5 POP POP POP POP POP JUMP JUMPDEST PUSH1 0x1 SLOAD PUSH1 0xFF AND ISZERO PUSH2 0x1F42 JUMPI PUSH1 0x40 MLOAD PUSH4 0xD93C0665 PUSH1 0xE0 SHL DUP2 MSTORE PUSH1 0x4 ADD PUSH1 0x40 MLOAD DUP1 SWAP2 SUB SWAP1 REVERT JUMPDEST PUSH1 0x40 MLOAD PUSH1 0x1 PUSH1 0x1 PUSH1 0xA0 SHL SUB DUP5 DUP2 AND PUSH1 0x24 DUP4 ADD MSTORE DUP4 DUP2 AND PUSH1 0x44 DUP4 ADD MSTORE PUSH1 0x64 DUP3 ADD DUP4 SWAP1 MSTORE PUSH2 0xA06 SWAP2 DUP7 SWAP2 DUP3 AND SWAP1 PUSH4 0x23B872DD SWAP1 PUSH1 0x84 ADD PUSH2 0x1F99 JUMP JUMPDEST PUSH2 0x20D9 PUSH2 0x2074 JUMP JUMPDEST PUSH1 0x1 DUP1 SLOAD PUSH1 0xFF NOT AND DUP2 OR SWAP1 SSTORE PUSH32 0x62E78CEA01BEE320CD4E420270B5EA74000D11B0C9F74754EBDBFC544B05A258 CALLER PUSH2 0x1F02 JUMP JUMPDEST PUSH1 0x1 DUP6 ADD DUP1 SLOAD PUSH1 0x4 PUSH1 0xFF NOT SWAP1 SWAP2 AND DUP2 OR SWAP1 SWAP2 SSTORE DUP6 SLOAD PUSH1 0x1 PUSH1 0x1 PUSH1 0xC0 SHL SUB AND PUSH1 0x1 PUSH1 0xC0 SHL TIMESTAMP PUSH1 0x1 PUSH1 0x1 PUSH1 0x40 SHL SUB AND MUL OR DUP7 SSTORE PUSH1 0x2 DUP7 ADD DUP1 SLOAD PUSH1 0x1 PUSH1 0x1 PUSH1 0x80 SHL SUB NOT AND PUSH1 0x1 PUSH1 0x1 PUSH1 0x80 SHL SUB DUP5 AND OR SWAP1 SSTORE PUSH1 0x3 DUP7 ADD DUP5 SWAP1 SSTORE DUP6 ADD DUP3 SWAP1 SSTORE PUSH1 0x40 DUP1 MLOAD DUP5 DUP2 MSTORE PUSH1 0x20 DUP2 ADD DUP5 SWAP1 MSTORE DUP1 DUP3 ADD DUP4 SWAP1 MSTORE SWAP1 MLOAD DUP6 SWAP2 PUSH32 0x6FAA1C6974B01D1466668718128C05788426C37FD3F11667F2CF4BC79A7CB7D6 SWAP2 SWAP1 DUP2 SWAP1 SUB PUSH1 0x60 ADD SWAP1 LOG2 POP POP POP POP POP JUMP JUMPDEST PUSH2 0x21BA DUP3 DUP3 PUSH2 0x1BBB JUMP JUMPDEST PUSH2 0x21EE JUMPI PUSH1 0x40 MLOAD PUSH4 0xE2517D3F PUSH1 0xE0 SHL DUP2 MSTORE PUSH1 0x1 PUSH1 0x1 PUSH1 0xA0 SHL SUB DUP3 AND PUSH1 0x4 DUP3 ADD MSTORE PUSH1 0x24 DUP2 ADD DUP4 SWAP1 MSTORE PUSH1 0x44 ADD JUMPDEST PUSH1 0x40 MLOAD DUP1 SWAP2 SUB SWAP1 REVERT JUMPDEST POP POP JUMP JUMPDEST PUSH1 0x0 PUSH2 0x2207 PUSH1 0x1 PUSH1 0x1 PUSH1 0xA0 SHL SUB DUP5 AND DUP4 PUSH2 0x2298 JUMP JUMPDEST SWAP1 POP DUP1 MLOAD PUSH1 0x0 EQ ISZERO DUP1 ISZERO PUSH2 0x222C JUMPI POP DUP1 DUP1 PUSH1 0x20 ADD SWAP1 MLOAD DUP2 ADD SWAP1 PUSH2 0x222A SWAP2 SWAP1 PUSH2 0x27C9 JUMP JUMPDEST ISZERO JUMPDEST ISZERO PUSH2 0xAB8 JUMPI PUSH1 0x40 MLOAD PUSH4 0x5274AFE7 PUSH1 0xE0 SHL DUP2 MSTORE PUSH1 0x1 PUSH1 0x1 PUSH1 0xA0 SHL SUB DUP5 AND PUSH1 0x4 DUP3 ADD MSTORE PUSH1 0x24 ADD PUSH2 0x21E5 JUMP JUMPDEST PUSH1 0x0 DUP2 DUP2 JUMPDEST DUP5 MLOAD DUP2 LT ISZERO PUSH2 0x2290 JUMPI PUSH2 0x2286 DUP3 DUP7 DUP4 DUP2 MLOAD DUP2 LT PUSH2 0x2279 JUMPI PUSH2 0x2279 PUSH2 0x27E6 JUMP JUMPDEST PUSH1 0x20 MUL PUSH1 0x20 ADD ADD MLOAD PUSH2 0x22A6 JUMP JUMPDEST SWAP2 POP PUSH1 0x1 ADD PUSH2 0x225A JUMP JUMPDEST POP SWAP4 SWAP3 POP POP POP JUMP JUMPDEST PUSH1 0x60 PUSH2 0x1C46 DUP4 DUP4 PUSH1 0x0 PUSH2 0x22D5 JUMP JUMPDEST PUSH1 0x0 DUP2 DUP4 LT PUSH2 0x22C2 JUMPI PUSH1 0x0 DUP3 DUP2 MSTORE PUSH1 0x20 DUP5 SWAP1 MSTORE PUSH1 0x40 SWAP1 KECCAK256 PUSH2 0x1C46 JUMP JUMPDEST PUSH1 0x0 DUP4 DUP2 MSTORE PUSH1 0x20 DUP4 SWAP1 MSTORE PUSH1 0x40 SWAP1 KECCAK256 PUSH2 0x1C46 JUMP JUMPDEST PUSH1 0x60 DUP2 SELFBALANCE LT ISZERO PUSH2 0x22FA JUMPI PUSH1 0x40 MLOAD PUSH4 0xCD786059 PUSH1 0xE0 SHL DUP2 MSTORE ADDRESS PUSH1 0x4 DUP3 ADD MSTORE PUSH1 0x24 ADD PUSH2 0x21E5 JUMP JUMPDEST PUSH1 0x0 DUP1 DUP6 PUSH1 0x1 PUSH1 0x1 PUSH1 0xA0 SHL SUB AND DUP5 DUP7 PUSH1 0x40 MLOAD PUSH2 0x2316 SWAP2 SWAP1 PUSH2 0x27FC JUMP JUMPDEST PUSH1 0x0 PUSH1 0x40 MLOAD DUP1 DUP4 SUB DUP2 DUP6 DUP8 GAS CALL SWAP3 POP POP POP RETURNDATASIZE DUP1 PUSH1 0x0 DUP2 EQ PUSH2 0x2353 JUMPI PUSH1 0x40 MLOAD SWAP2 POP PUSH1 0x1F NOT PUSH1 0x3F RETURNDATASIZE ADD AND DUP3 ADD PUSH1 0x40 MSTORE RETURNDATASIZE DUP3 MSTORE RETURNDATASIZE PUSH1 0x0 PUSH1 0x20 DUP5 ADD RETURNDATACOPY PUSH2 0x2358 JUMP JUMPDEST PUSH1 0x60 SWAP2 POP JUMPDEST POP SWAP2 POP SWAP2 POP PUSH2 0x2368 DUP7 DUP4 DUP4 PUSH2 0x2372 JUMP JUMPDEST SWAP7 SWAP6 POP POP POP POP POP POP JUMP JUMPDEST PUSH1 0x60 DUP3 PUSH2 0x2387 JUMPI PUSH2 0x2382 DUP3 PUSH2 0x23CE JUMP JUMPDEST PUSH2 0x1C46 JUMP JUMPDEST DUP2 MLOAD ISZERO DUP1 ISZERO PUSH2 0x239E JUMPI POP PUSH1 0x1 PUSH1 0x1 PUSH1 0xA0 SHL SUB DUP5 AND EXTCODESIZE ISZERO JUMPDEST ISZERO PUSH2 0x23C7 JUMPI PUSH1 0x40 MLOAD PUSH4 0x9996B315 PUSH1 0xE0 SHL DUP2 MSTORE PUSH1 0x1 PUSH1 0x1 PUSH1 0xA0 SHL SUB DUP6 AND PUSH1 0x4 DUP3 ADD MSTORE PUSH1 0x24 ADD PUSH2 0x21E5 JUMP JUMPDEST POP DUP1 PUSH2 0x1C46 JUMP JUMPDEST DUP1 MLOAD ISZERO PUSH2 0x23DE JUMPI DUP1 MLOAD DUP1 DUP3 PUSH1 0x20 ADD REVERT JUMPDEST PUSH1 0x40 MLOAD PUSH4 0xA12F521 PUSH1 0xE1 SHL DUP2 MSTORE PUSH1 0x4 ADD PUSH1 0x40 MLOAD DUP1 SWAP2 SUB SWAP1 REVERT JUMPDEST PUSH1 0x0 PUSH1 0x20 DUP3 DUP5 SUB SLT ISZERO PUSH2 0x2409 JUMPI PUSH1 0x0 DUP1 REVERT JUMPDEST DUP2 CALLDATALOAD PUSH1 0x1 PUSH1 0x1 PUSH1 0xE0 SHL SUB NOT DUP2 AND DUP2 EQ PUSH2 0x1C46 JUMPI PUSH1 0x0 DUP1 REVERT JUMPDEST PUSH1 0x0 PUSH1 0x20 DUP3 DUP5 SUB SLT ISZERO PUSH2 0x2433 JUMPI PUSH1 0x0 DUP1 REVERT JUMPDEST POP CALLDATALOAD SWAP2 SWAP1 POP JUMP JUMPDEST DUP1 ISZERO ISZERO DUP2 EQ PUSH2 0xC2A JUMPI PUSH1 0x0 DUP1 REVERT JUMPDEST PUSH1 0x0 PUSH1 0x20 DUP3 DUP5 SUB SLT ISZERO PUSH2 0x245A JUMPI PUSH1 0x0 DUP1 REVERT JUMPDEST DUP2 CALLDATALOAD PUSH2 0x1C46 DUP2 PUSH2 0x243A JUMP JUMPDEST DUP1 CALLDATALOAD PUSH1 0x1 PUSH1 0x1 PUSH1 0xA0 SHL SUB DUP2 AND DUP2 EQ PUSH2 0x247C JUMPI PUSH1 0x0 DUP1 REVERT JUMPDEST SWAP2 SWAP1 POP JUMP JUMPDEST PUSH1 0x0 DUP1 PUSH1 0x40 DUP4 DUP6 SUB SLT ISZERO PUSH2 0x2494 JUMPI PUSH1 0x0 DUP1 REVERT JUMPDEST DUP3 CALLDATALOAD SWAP2 POP PUSH2 0x24A4 PUSH1 0x20 DUP5 ADD PUSH2 0x2465 JUMP JUMPDEST SWAP1 POP SWAP3 POP SWAP3 SWAP1 POP JUMP JUMPDEST DUP1 CALLDATALOAD PUSH1 0x1 PUSH1 0x1 PUSH1 0x40 SHL SUB DUP2 AND DUP2 EQ PUSH2 0x247C JUMPI PUSH1 0x0 DUP1 REVERT JUMPDEST PUSH1 0x0 DUP1 PUSH1 0x0 DUP1 PUSH1 0x80 DUP6 DUP8 SUB SLT ISZERO PUSH2 0x24DA JUMPI PUSH1 0x0 DUP1 REVERT JUMPDEST DUP5 CALLDATALOAD SWAP4 POP PUSH2 0x24EA PUSH1 0x20 DUP7 ADD PUSH2 0x24AD JUMP JUMPDEST SWAP3 POP PUSH2 0x24F8 PUSH1 0x40 DUP7 ADD PUSH2 0x24AD JUMP JUMPDEST SWAP2 POP PUSH2 0x2506 PUSH1 0x60 DUP7 ADD PUSH2 0x24AD JUMP JUMPDEST SWAP1 POP SWAP3 SWAP6 SWAP2 SWAP5 POP SWAP3 POP JUMP JUMPDEST PUSH1 0x0 DUP1 DUP4 PUSH1 0x1F DUP5 ADD SLT PUSH2 0x2523 JUMPI PUSH1 0x0 DUP1 REVERT JUMPDEST POP DUP2 CALLDATALOAD PUSH1 0x1 PUSH1 0x1 PUSH1 0x40 SHL SUB DUP2 GT ISZERO PUSH2 0x253A JUMPI PUSH1 0x0 DUP1 REVERT JUMPDEST PUSH1 0x20 DUP4 ADD SWAP2 POP DUP4 PUSH1 0x20 DUP3 PUSH1 0x5 SHL DUP6 ADD ADD GT ISZERO PUSH2 0x2555 JUMPI PUSH1 0x0 DUP1 REVERT JUMPDEST SWAP3 POP SWAP3 SWAP1 POP JUMP JUMPDEST PUSH1 0x0 DUP1 PUSH1 0x0 DUP1 PUSH1 0x0 DUP1 PUSH1 0xA0 DUP8 DUP10 SUB SLT ISZERO PUSH2 0x2575 JUMPI PUSH1 0x0 DUP1 REVERT JUMPDEST DUP7 CALLDATALOAD SWAP6 POP PUSH1 0x20 DUP8 ADD CALLDATALOAD SWAP5 POP PUSH1 0x40 DUP8 ADD CALLDATALOAD SWAP4 POP PUSH1 0x60 DUP8 ADD CALLDATALOAD SWAP3 POP PUSH1 0x80 DUP8 ADD CALLDATALOAD PUSH1 0x1 PUSH1 0x1 PUSH1 0x40 SHL SUB DUP2 GT ISZERO PUSH2 0x25A7 JUMPI PUSH1 0x0 DUP1 REVERT JUMPDEST PUSH2 0x25B3 DUP10 DUP3 DUP11 ADD PUSH2 0x2511 JUMP JUMPDEST SWAP8 SWAP11 SWAP7 SWAP10 POP SWAP5 SWAP8 POP SWAP3 SWAP6 SWAP4 SWAP5 SWAP3 POP POP POP JUMP JUMPDEST PUSH1 0x0 DUP1 PUSH1 0x0 PUSH1 0x60 DUP5 DUP7 SUB SLT ISZERO PUSH2 0x25DA JUMPI PUSH1 0x0 DUP1 REVERT JUMPDEST POP POP DUP2 CALLDATALOAD SWAP4 PUSH1 0x20 DUP4 ADD CALLDATALOAD SWAP4 POP PUSH1 0x40 SWAP1 SWAP3 ADD CALLDATALOAD SWAP2 SWAP1 POP JUMP JUMPDEST PUSH1 0x0 DUP1 PUSH1 0x0 DUP1 PUSH1 0x0 DUP1 PUSH1 0x0 PUSH1 0xC0 DUP9 DUP11 SUB SLT ISZERO PUSH2 0x260C JUMPI PUSH1 0x0 DUP1 REVERT JUMPDEST DUP8 CALLDATALOAD SWAP7 POP PUSH2 0x261C PUSH1 0x20 DUP10 ADD PUSH2 0x2465 JUMP JUMPDEST SWAP6 POP PUSH1 0x40 DUP9 ADD CALLDATALOAD SWAP5 POP PUSH1 0x60 DUP9 ADD CALLDATALOAD SWAP4 POP PUSH1 0x80 DUP9 ADD CALLDATALOAD SWAP3 POP PUSH1 0xA0 DUP9 ADD CALLDATALOAD PUSH1 0x1 PUSH1 0x1 PUSH1 0x40 SHL SUB DUP2 GT ISZERO PUSH2 0x264C JUMPI PUSH1 0x0 DUP1 REVERT JUMPDEST PUSH2 0x2658 DUP11 DUP3 DUP12 ADD PUSH2 0x2511 JUMP JUMPDEST SWAP9 SWAP12 SWAP8 SWAP11 POP SWAP6 SWAP9 POP SWAP4 SWAP7 SWAP3 SWAP6 SWAP3 SWAP4 POP POP POP JUMP JUMPDEST PUSH1 0x0 DUP1 PUSH1 0x40 DUP4 DUP6 SUB SLT ISZERO PUSH2 0x267E JUMPI PUSH1 0x0 DUP1 REVERT JUMPDEST POP POP DUP1 CALLDATALOAD SWAP3 PUSH1 0x20 SWAP1 SWAP2 ADD CALLDATALOAD SWAP2 POP JUMP JUMPDEST PUSH1 0x0 DUP1 PUSH1 0x0 DUP1 PUSH1 0x80 DUP6 DUP8 SUB SLT ISZERO PUSH2 0x26A3 JUMPI PUSH1 0x0 DUP1 REVERT JUMPDEST POP POP DUP3 CALLDATALOAD SWAP5 PUSH1 0x20 DUP5 ADD CALLDATALOAD SWAP5 POP PUSH1 0x40 DUP5 ADD CALLDATALOAD SWAP4 PUSH1 0x60 ADD CALLDATALOAD SWAP3 POP SWAP1 POP JUMP JUMPDEST PUSH4 0x4E487B71 PUSH1 0xE0 SHL PUSH1 0x0 MSTORE PUSH1 0x11 PUSH1 0x4 MSTORE PUSH1 0x24 PUSH1 0x0 REVERT JUMPDEST DUP1 DUP3 ADD DUP1 DUP3 GT ISZERO PUSH2 0x78B JUMPI PUSH2 0x78B PUSH2 0x26BF JUMP JUMPDEST PUSH1 0x1 PUSH1 0x1 PUSH1 0x80 SHL SUB DUP3 DUP2 AND DUP3 DUP3 AND SUB SWAP1 DUP1 DUP3 GT ISZERO PUSH2 0x2708 JUMPI PUSH2 0x2708 PUSH2 0x26BF JUMP JUMPDEST POP SWAP3 SWAP2 POP POP JUMP JUMPDEST PUSH12 0xFFFFFFFFFFFFFFFFFFFFFFFF NOT PUSH1 0x60 SWAP9 DUP10 SHL DUP2 AND DUP3 MSTORE PUSH1 0x14 DUP3 ADD SWAP8 SWAP1 SWAP8 MSTORE PUSH1 0x34 DUP2 ADD SWAP6 SWAP1 SWAP6 MSTORE SWAP3 SWAP1 SWAP6 SHL SWAP1 SWAP4 AND PUSH1 0x54 DUP4 ADD MSTORE PUSH1 0x68 DUP3 ADD SWAP3 SWAP1 SWAP3 MSTORE PUSH1 0x88 DUP2 ADD SWAP3 SWAP1 SWAP3 MSTORE PUSH1 0xA8 DUP3 ADD MSTORE PUSH1 0xC8 ADD SWAP1 JUMP JUMPDEST DUP2 DUP2 SUB DUP2 DUP2 GT ISZERO PUSH2 0x78B JUMPI PUSH2 0x78B PUSH2 0x26BF JUMP JUMPDEST DUP1 DUP3 MUL DUP2 ISZERO DUP3 DUP3 DIV DUP5 EQ OR PUSH2 0x78B JUMPI PUSH2 0x78B PUSH2 0x26BF JUMP JUMPDEST PUSH1 0x0 DUP3 PUSH2 0x27A4 JUMPI PUSH4 0x4E487B71 PUSH1 0xE0 SHL PUSH1 0x0 MSTORE PUSH1 0x12 PUSH1 0x4 MSTORE PUSH1 0x24 PUSH1 0x0 REVERT JUMPDEST POP DIV SWAP1 JUMP JUMPDEST PUSH1 0x1 PUSH1 0x1 PUSH1 0x80 SHL SUB DUP2 DUP2 AND DUP4 DUP3 AND ADD SWAP1 DUP1 DUP3 GT ISZERO PUSH2 0x2708 JUMPI PUSH2 0x2708 PUSH2 0x26BF JUMP JUMPDEST PUSH1 0x0 PUSH1 0x20 DUP3 DUP5 SUB SLT ISZERO PUSH2 0x27DB JUMPI PUSH1 0x0 DUP1 REVERT JUMPDEST DUP2 MLOAD PUSH2 0x1C46 DUP2 PUSH2 0x243A JUMP JUMPDEST PUSH4 0x4E487B71 PUSH1 0xE0 SHL PUSH1 0x0 MSTORE PUSH1 0x32 PUSH1 0x4 MSTORE PUSH1 0x24 PUSH1 0x0 REVERT JUMPDEST PUSH1 0x0 DUP3 MLOAD PUSH1 0x0 JUMPDEST DUP2 DUP2 LT ISZERO PUSH2 0x281D JUMPI PUSH1 0x20 DUP2 DUP7 ADD DUP2 ADD MLOAD DUP6 DUP4 ADD MSTORE ADD PUSH2 0x2803 JUMP JUMPDEST POP PUSH1 0x0 SWAP3 ADD SWAP2 DUP3 MSTORE POP SWAP2 SWAP1 POP JUMP INVALID PUSH9 0xE79A7BF1E0BC45D0A3 ADDRESS 0xC5 PUSH20 0xBC367F9CF464FD326078812F301165FBDA4EF1A2 PUSH5 0x6970667358 0x22 SLT KECCAK256 0xCA ADD JUMPI PUSH9 0x49279B420FA14FCB4B 0x2A 0xBD PUSH14 0x360CFFE3B46381A6663B21B8E162 CREATE2 PUSH19 0x64736F6C634300081800330000000000000000 "},"methodIdentifiers":{"AUDITOR_ROLE()":"6e1d616e","BPS()":"249d39e9","DEFAULT_ADMIN_ROLE()":"a217fddf","MAX_SWAPS()":"06276121","ORACLE_ROLE()":"07e2cea5","PAUSER_ROLE()":"e63ab1e9","REWARD_SWEEP_DELAY()":"dda062d4","approveFinalization(uint256)":"8197eba8","claim(uint256,uint256,uint256,uint256,bytes32[])":"5463c3e8","commitLineup(uint256,bytes32,uint256)":"686c3db4","createWeek(uint256,uint64,uint64,uint64)":"36cb2920","emergencyExit(uint256)":"4231b0bd","feeBps()":"24a9d853","finalizeWeek(uint256,bytes32,bytes32,uint256)":"e81248d2","forceFinalizeWeek(uint256,bytes32,bytes32,uint256)":"c839d8dc","forceLockWeek(uint256)":"161d263e","forceStartWeek(uint256)":"1cd249e6","getRoleAdmin(bytes32)":"248a9ca3","grantRole(bytes32,address)":"2f2ff15d","hasRole(bytes32,address)":"91d14854","lockWeek(uint256)":"24891c55","minDeposit()":"41b3d185","pause()":"8456cb59","paused()":"5c975abb","positions(uint256,address)":"e684d718","principalRatioBps()":"421e3cd6","rejectFinalization(uint256)":"601ee229","renounceRole(bytes32,address)":"36568abe","revokeRole(bytes32,address)":"d547741f","rewardSweepAvailableAt(uint256)":"b692d265","setTestMode(bool)":"1ff1292f","stablecoin()":"e9cbd822","startWeek(uint256)":"3145c3cd","supportsInterface(bytes4)":"01ffc9a7","swapLineup(uint256,bytes32)":"8cd3b5e8","sweepExpiredReward(uint256,address,uint256,uint256,uint256,bytes32[])":"6e4322e5","testMode()":"cd9ea342","treasury()":"61d027b3","unpause()":"3f4ba83a","weekStates(uint256)":"316a65e5"}}}}}